:020000040800F2
:1000000000800020BDC9000849CA00088DBF000853
:1000100000000000000000000000000000000000E0
:10002000000000000000000000000000D1E7000810
:10003000000000000000000089E8000881BF0008FF
:1000400049CA000849CA000849CA000849CA000844
:1000500049CA000849CA000849CA000849CA000834
:1000600049CA0008D5BF0008E1BF000821C0000848
:1000700049CA000849CA000849CA000849CA000814
:1000800049CA000849CA000849CA000849CA000804
:1000900049CA000849CA000849CA000849CA0008F4
:1000A00049CA000849CA000849CA000891BF0008A7
:0C00B000A1BF0008B1BF000849CA000849
:1000BC0010B5064C2378002B07D1054B002B02D032
:1000CC00044800E000BF0123237010BD580A002033
:1000DC000000000090690108044B10B5002B03D000
:1000EC000349044800E000BF10BDC04600000000FA
:1000FC005C0A00209069010802780B78002A03D072
:10010C00013001319A42F7D0D01A70470023C25CFB
:10011C000133002AFBD1581E7047000002B471460F
:10012C0049084900095C49008E4402BC7047C0462E
:10013C0003B47146490840004900095E49008E44E9
:10014C0003BC7047002243088B4274D303098B42D3
:10015C005FD3030A8B4244D3030B8B4228D3030C8B
:10016C008B420DD3FF22090212BA030C8B4202D32D
:10017C001212090265D0030B8B4219D300E0090A55
:10018C00C30B8B4201D3CB03C01A5241830B8B425E
:10019C0001D38B03C01A5241430B8B4201D34B0347
:1001AC00C01A5241030B8B4201D30B03C01A5241AC
:1001BC00C30A8B4201D3CB02C01A5241830A8B4231
:1001CC0001D38B02C01A5241430A8B4201D34B021A
:1001DC00C01A5241030A8B4201D30B02C01A52417E
:1001EC00CDD2C3098B4201D3CB01C01A5241830932
:1001FC008B4201D38B01C01A524143098B4201D36C
:10020C004B01C01A524103098B4201D30B01C01A96
:10021C005241C3088B4201D3CB00C01A5241830810
:10022C008B4201D38B00C01A524143088B4201D33D
:10023C004B00C01A5241411A00D20146524110469D
:10024C007047FFE701B5002000F0F0F802BDC04692
:10025C000029F7D076E7704703460B437FD4002282
:10026C0043088B4274D303098B425FD3030A8B423E
:10027C0044D3030B8B4228D3030C8B420DD3FF22A8
:10028C00090212BA030C8B4202D31212090265D076
:10029C00030B8B4219D300E0090AC30B8B4201D329
:1002AC00CB03C01A5241830B8B4201D38B03C01A70
:1002BC005241430B8B4201D34B03C01A5241030BE7
:1002CC008B4201D30B03C01A5241C30A8B4201D398
:1002DC00CB02C01A5241830A8B4201D38B02C01A43
:1002EC005241430A8B4201D34B02C01A5241030ABA
:1002FC008B4201D30B02C01A5241CDD2C3098B429F
:10030C0001D3CB01C01A524183098B4201D38B011B
:10031C00C01A524143098B4201D34B01C01A5241BE
:10032C0003098B4201D30B01C01A5241C3088B4203
:10033C0001D3CB00C01A524183088B4201D38B00EE
:10034C00C01A524143088B4201D34B00C01A524190
:10035C00411A00D201465241104670475DE0CA0F67
:10036C0000D04942031000D34042534000229C4627
:10037C0003098B422DD3030A8B4212D3FC22890131
:10038C0012BA030A8B420CD3890192118B4208D307
:10039C00890192118B4204D389013AD0921100E069
:1003AC008909C3098B4201D3CB01C01A524183097D
:1003BC008B4201D38B01C01A524143098B4201D3AA
:1003CC004B01C01A524103098B4201D30B01C01AD5
:1003DC005241C3088B4201D3CB00C01A524183084F
:1003EC008B4201D38B00C01A5241D9D243088B42A5
:1003FC0001D34B00C01A5241411A00D20146634648
:10040C0052415B10104601D34042002B00D54942AB
:10041C00704763465B1000D3404201B5002000F0EA
:10042C0005F802BD0029F8D016E770477047C046A2
:10043C008446101C62468C46191C634600E0C0467C
:10044C001FB501F01BF9002801D40021C8421FBDC3
:10045C0010B501F073F84042013010BD10B501F039
:10046C000DF9002801DB002010BD012010BDC04695
:10047C0010B501F003F9002801DD002010BD0120AA
:10048C0010BDC04610B501F095F8002801DC002025
:10049C0010BD012010BDC04610B501F08BF800282E
:1004AC0001DA002010BD012010BDC0468446081C96
:1004BC006146FFE71FB500F0D3F9002801D40021F5
:1004CC00C8421FBD10B500F055F94042013010BDB7
:1004DC0010B500F0C5F9002801DB002010BD01208B
:1004EC0010BDC04610B500F0BBF9002801DD00209E
:1004FC0010BD012010BDC04610B500F063F90028F6
:10050C0001DC002010BD012010BDC04610B500F06C
:10051C0059F9002801DA002010BD012010BDC04699
:10052C00002B11D1002A0FD1002900D1002802D0B4
:10053C000021C943081C07B4024802A140180290CC
:10054C0003BDC046E9FEFFFF03B4684601B502983F
:10055C0000F04EF8019B9E4602B00CBC7047C046A2
:10056C00F0B5CE46474615042D0C2E0080B5070479
:10057C00140C3F0C9946030C7E435D436743634365
:10058C007F19340CE4199C46A54203D980235B02E5
:10059C009846C4444B4643435143250C36046544AA
:1005AC00360C2404A4195B19591820000CBC904675
:1005BC009946F0BD70B500220C4B04000D00FFF7FE
:1005CC006BFF002804D12000290001F095FE70BDBE
:1005DC00064B00222000290001F02AFB01F08CFEC2
:1005EC0080231B069C466044F1E7C0460000E041B6
:1005FC00F0B54F464646D646C0B5040082B00D0055
:10060C00914698468B422FD82CD04146484602F052
:10061C0009F829000600200002F004F8331A9C4661
:10062C00203B9A4600D576E04B46524693401F003D
:10063C004B46624693401E00AF4228D825D0534605
:10064C00A41BBD41002B00DA7BE0002200230092AA
:10065C000193012352469340019301236246934038
:10066C00009318E08242D0D900220023009201931B
:10067C000A9B002B01D01C605D600098019902B0B0
:10068C001CBC90469946A246F0BDA342D7D9002285
:10069C000023009201936346002BE9D0FB07984698
:1006AC00414672080A437B0866460EE0AB4201D114
:1006BC00A2420CD8A41A9D41012024196D4100219D
:1006CC00013E24184D41002E06D0AB42EED9013E1E
:1006DC0024196D41002EF8D1009801995346001948
:1006EC006941002B23DB2B005246D3402A00644681
:1006FC00E2401C0053461500002B2DDB260057460C
:10070C00BE40330026006746BE403200801A994135
:10071C0000900191ACE7624620239B1A4A46DA40CE
:10072C006146130042468A4017001F4380E7624629
:10073C0020239B1A2A0066469A402300F340134359
:10074C00D4E76246202300219B1A002200910192DB
:10075C000122DA40019280E72023624626009B1A90
:10076C00DE402F00B0466646B74046463B0033435A
:10077C00C8E7C04670B542004E024C0045026D0AF7
:10078C00120EC30F760A240EC90FFF2A0FD0FF2CAE
:10079C0011D00120A24200D070BDB542FCD18B42D9
:1007AC000DD0002AF8D12800451EA841F4E70120FD
:1007BC00002DF1D1EBE70120002EEDD1E9E700206F
:1007CC00EAE7C04670B54A004E02450244006D0A85
:1007DC00240EC30F760A120EC90FFF2C15D0FF2A58
:1007EC000ED0002C15D1002A01D1002E1CD0002DCA
:1007FC0014D08B4227D00220013B1840013870BD29
:10080C00002EEED002204042F9E7002DFAD1FF2A4B
:10081C000ED0002A0ED1002EEDD00BE001230139B1
:10082C00994308000130EAE70020002DE7D0E2E709
:10083C00002EE7D18B42DED1944205DD0221581EF9
:10084C0008400138DBE70024A24204DCB542D2D8D0
:10085C000020B542D3D2581E012398430130CEE775
:10086C0030B5420044024D02C30F4800640A120E18
:10087C006D0A000EC90FFF2A12D0FF280CD0002AD7
:10088C0012D1002819D1002D17D1002C2BD0022009
:10089C00013B1840013826E0002DF0D0022022E068
:1008AC00002CFBD1FF281FD000281FD1002D1DD1FB
:1008BC000220013B1840013815E0002C0ED08B4271
:1008CC00E5D10022904204DCAC42E0D80020AC42DE
:1008DC0009D2581E01239843013004E00123013949
:1008EC0099430800013030BD002DD7D18B42CED1B9
:1008FC008242E7DD0221581E08400138F3E7C0466A
:10090C00F0B54F464646D6460C000903C0B5490A19
:10091C00470F5E0039431F03DB0F9C4665007B0AC3
:10092C00570F1F436D0DE40F760DA146C000B8465E
:10093C00D200AB1B64457BD0002B5FDD002E00D0BA
:10094C00A4E03E00164300D112E15E1E002E00D042
:10095C009EE1871A4346B84280410125C91A40429C
:10096C00091A0B0200D431E149024E0A002E00D1C3
:10097C006EE1300001F038FE0300083B1F2B00DD58
:10098C0061E120223900D21A9E40D1409F400E4393
:10099C009D4200DD51E15D1B6B1C1F2B00DD7CE1DA
:1009AC002021C91A3D0030008F408840DD40791E5F
:1009BC008F41310007222843D940002507433A4094
:1009CC00002A09D00F233B40042B05D03B1DBB4212
:1009DC00BF417F42C9191F000B0200D426E26A1CDA
:1009EC00C64B55056D0D9A4200D106E1C44AFF086D
:1009FC000A40530752023B43120B8EE0002B00D0EF
:100A0C00B8E06B1C5B055B0D012B00DC30E1871A39
:100A1C004346B842B641CB1A76429E1B330200D5F0
:100A2C004CE13B003343A1D100220024002570E0AF
:100A3C00002B00DCE5E0002E00D183E0AF4EB54288
:100A4C0060D0802636043743B846382B00DC3EE1B4
:100A5C00434613431F007A1E97413F18874280413B
:100A6C00404209180B0200D4B0E0A44B01359D4262
:100A7C0000D1C3E0A24A7B080A4001210F401F436A
:100A8C005108D30707221F433A4099E79B4EB542C2
:100A9C0038D0802636043743B846382B00DDDCE0EE
:100AAC001F2B00DC30E11E004746203EF740BC46C1
:100ABC00202B04D04026F31A46469E4032431700A2
:100ACC0063467A1E97411F43CCE0002B00D104E211
:100ADC004346134300D159E14B07C0081843802308
:100AEC00C9081B03194208D04546ED081D4204D124
:100AFC004346D008590708432900420FC9007F4DCF
:100B0C001143C0004B07CA087C49C00803438D42FF
:100B1C0068D012036D05120B6D0D00211203180025
:100B2C00130B0A0D12051A43764B2D0513402B435C
:100B3C005B00E4075B08234319001CBC90469946F4
:100B4C00A246F0BD3E00164312D05E1E002E00D011
:100B5C0000E1871887428041414440420918012531
:100B6C000B0233D5022585E764463300414610005D
:100B7C001D00C7E7002D00D0DAE00C000443F3D0D1
:100B8C005C1C00D19FE15D4CA64200D12FE1DB4300
:100B9C00382B00DD66E11F2B00DD83E120240500EE
:100BAC00E41A0F00DD40D940A0404346A7405B1A31
:100BBC00441EA04198462F433843171ABA4292411B
:100BCC0043465242991A64463500CAE607223A4017
:100BDC00002A00D0F6E64B07CA084849FF083B43F9
:100BEC008D4296D11900114300D19EE18021090359
:100BFC000A431203120B414D8FE71500002200230C
:100C0C008BE7002B00D0C7E06B1C5F057F0D012F1D
:100C1C0000DCF1E0394DAB4200D1B9E085180A0097
:100C2C00854289414244494251180722CF076D0839
:100C3C002F4349083A401D00C2E607223049ED1AFD
:100C4C0031403A40BCE63E002838864000279FE6FB
:100C5C00380001F0C9FC20308EE6434613431F00D8
:100C6C007A1E9741C71BB84280414042091A78E668
:100C7C000E003B0006431343002D61D1002E00D023
:100C8C00F4E0002B00D11BE164463900100039E779
:100C9C001A4FBB427AD03300FFE630001F3DE840CC
:100CAC00202B03D04021CB1A9E4037437B1E9F4103
:100CBC00072207433A400021002589E7171A4346CB
:100CCC00BA42B641591A76428E1B64464EE61F2B29
:100CDC0000DDADE020264746F61AB740B9461700AE
:100CEC00B246DF404E463E4337005646B240561E93
:100CFC00B24117434246DA408918AEE6FF070000BE
:100D0C00FFFF7FFFFFFF0F8020264746F61AB740F4
:100D1C00B9461700B246DF404E463E4337005646B2
:100D2C00B240561EB24117434246DA40891A99E73F
:100D3C007F4CA6425BD0802424045B42214327E7EE
:100D4C00002E0CD1002B00D1CBE0644639001000F2
:100D5C00774DD7E6764FBB4218D0330075E6002BA3
:100D6C0014D04B07C00818438023C9081B03194231
:100D7C0007D0FC081C4204D17907D0080843E1468F
:100D8C0021004C46420FC9001143C000684DB9E622
:100D9C001D0000220023C0E6002D5BD10D00054391
:100DAC0000D1E2E65D1C00D1B0E0614DAE421FD037
:100DBC00DB43382B71DC1F2B00DD96E020250F0068
:100DCC00ED1AAF40B9460700AA46DF404D463D43F9
:100DDC002F005546A840D940451EA84188440743DA
:100DEC00BF18974292415142414435003AE664465D
:100DFC0035004146100085E60B000343002D00D062
:100E0C0063E6002BF5D04346134300D17AE68718EE
:100E1C008742804107224144404209183A400B0264
:100E2C0000D4D5E6434B01351940C9E5380069E6D5
:100E3C001E004746203EF740BC46202B04D04026DF
:100E4C00F31A46469E403243170063467A1E97417A
:100E5C001F4302E6364DAE42CAD080252D045B42BC
:100E6C002943A6E70843411E8841A6E6002B00D182
:100E7C0048E6871A4346B842B641CB1A76429E1BC7
:100E8C0033024BD5171A4346BA429241591A524271
:100E9C00891A072264463A4092E501430F00791EF5
:100EAC008F419DE71C000F00203CE740202B03D016
:100EBC004024E31A99400843411E884138437CE69C
:100ECC000022002425E6171A4346BA429241591AC9
:100EDC005242891A6446350043E541461000144DD0
:100EEC0010E680220024120380E61D000F00203D36
:100EFC00EF40BC46202B03D04025EB1A9940084309
:100F0C0007006346781E87411F4369E7871897429D
:100F1C009B4141445B42C9183500A3E53B00334378
:100F2C00CED0072231003A4052E600231A00F4E5F5
:100F3C00FF070000FFFF7FFFF0B55746DE464E4629
:100F4C004546E0B5834607000E03480085B092463F
:100F5C001C00360B400DCD0F002800D19DE0954BA9
:100F6C00984239D08023F6001B041E43924A7B0F13
:100F7C0033439946944603006344009300230026B0
:100F8C00FF00029323031B0B98466300E40F5246A9
:100F9C005B0D019400D1B3E086498B4200D19EE0F9
:100FAC004246D100802212040A435146490F114394
:100FBC008B46814952468C4600996344CB1A0021DA
:100FCC00D20000932B0063409A460F2E00D905E106
:100FDC007A4BB6009B599F465B463343994600D0EB
:100FEC00B8E002230826002700900293CAE7CB46FC
:100FFC003A0002990195019B9A46022927D00329B0
:10100C0000D180E2012944D06D49009B8C46634499
:10101C001C00002C38DD530700D013E2D2085B46CD
:10102C00DB0109D55946674B19408B468021C90015
:10103C008C46009B63441C00634B9C4207DC5B4664
:10104C0064055F075B0217431B0B620D02E0002374
:10105C000027584A00211B031C0B0B0D1B052343B7
:10106C0014055A4A380013401C4353466400DB07EE
:10107C0064081C43210005B03CBC90469946A2462E
:10108C00AB46F0BD0122524201231B1B382B00DC66
:10109C00ADE1002200230027DCE75B463343994691
:1010AC005ED0002E00D18AE1300001F09DFA0300E1
:1010BC000B3B1C2B00DD7BE11D22D31A5A46010091
:1010CC00DA4008398E4013005F46334399468F400F
:1010DC003F4B00261B1A00930023029352E7414614
:1010EC0053460B433B499B468C46009B6344009301
:1010FC005B46002B3BD1022300221E43022161E7F9
:10110C00434613439B4637D04346002B00D162E144
:10111C00404601F069FA03000B3B1C2B00DD53E148
:10112C0002004146083A914088461D21CB1A51468F
:10113C00D9400B0041460B439B46534693401A0043
:10114C00009B25499C46604403008C4663440093F5
:10115C00002137E70323B14600900C26029311E7D8
:10116C000023009301330426002702930AE703238C
:10117C00C3461E43032125E701331E4300220121F0
:10118C0020E700239A46802300271B03094A61E7C6
:10119C00802349461B03194200D1E2E0594619420B
:1011AC0000D0DEE00B431B0317001B0BA246014AC9
:1011BC0050E7C046FF07000001FCFFFFDC69010897
:1011CC00FF030000FFFFFFFEFE070000FFFF0F8084
:1011DC000DFCFFFF01F8FFFFF3030000D94500D918
:1011EC00CBE000D1C6E03C0048460027009B013B09
:1011FC0000935B46160E1B021E43130298463304E3
:10120C001B0C9946310C0191FFF722F84A464243D8
:10121C000B04210C050019438A4207D98919013D99
:10122C008E4203D88A4201D9851E8919881A0199E0
:10123C00FFF70EF809048C464A46210464464243E3
:10124C00090C030021438A4204D98919013B8E42BF
:10125C0000D8F1E02D041D43AB464346891A4246A3
:10126C00280C12041D0C5B46140C22001B041B0CD6
:10127C005A4303946B434443029568431B19150C62
:10128C00EB189C4203D980246402A44660441C0CD5
:10129C0015041B042D0C20185D19814277D373D0D3
:1012AC000C1AA24A7D1BAF42BF419446009B7F4261
:1012BC006344E01B1C00864200D1DBE00199FEF781
:1012CC00C7FF4A4642430B04290C070019438A42C4
:1012DC0007D98919013F8E4203D88A4201D9871E4A
:1012EC008919881A0199FEF7B3FF09044A46894601
:1012FC0029044D464243090C030029438A4207D96D
:10130C008919013B8E4203D88A4201D9831E89195F
:10131C003F04891A3A00039F1A43380013041B0C2C
:10132C00584381460298150C6F4343434543484646
:10133C00000C8446DB1963449F4203D98020400291
:10134C008446654448461F0C00041B04000C7D19A0
:10135C001818A94200D284E000D17FE001231A437F
:10136C0057E680234A461B0313431B031B0BAA4659
:10137C006F4A6FE6BA4200D935E74B46DC0758088E
:10138C007B081C43FF0734E70024AF4289D2474453
:10139C004745A4415B466442A4196418013BA6422C
:1013AC001ED2A0426DD800D1B6E0241A9B4678E735
:1013BC0003005A46283B9A400027914688E6584637
:1013CC0001F012F9203072E603005246283B9A4095
:1013DC0093460022B4E6504601F006F920309AE616
:1013EC00A642E2D1B845DCD9341A9B4659E71F2BEB
:1013FC0065DC504C0099A4465C46614408008C4066
:10140C0011008240D940501E82410C4314435A466D
:10141C00DA401300620709D00F222240042A05D0BB
:10142C002200141D9442894149425B181A0262D56C
:10143C000122002300270DE68A4200D80AE7831E0A
:10144C00891907E70F231340042B00D1E6E5171D7C
:10145C009742924153429B44FA08E0E5002800D1A0
:10146C00D7E57118531EB14227D3A94215D358D0D2
:10147C001A0073E7002B00DC04E6012300229B44D6
:10148C00CDE502234744474589415B429C4649428E
:10149C0089190C19E344241A03E743465F004745B6
:1014AC009B41B8465B429E19023A8919A94200D069
:1014BC0054E7404500D051E7ABE51A00F6E71F2191
:1014CC005F4649420C1BE740202B07D01A49009B72
:1014DC008C46634418005B4683401A43501E82417D
:1014EC003A4307270023174009D00F21002311404E
:1014FC001400042995D122005F075B021B0BD20854
:10150C0017430022A6E5802359461B030B431B03FC
:10151C0017001B0B064A9DE5BD42B2D89B46002422
:10152C00BFE68045B9D31A00C3E7C046FF030000ED
:10153C00FF0700001E0400003E040000F0B54F46FB
:10154C004646D6468446C0B58046194E18030F034E
:10155C004D00000B5C0082463F0B6D0DC90F914690
:10156C00640DDB0F0120B5420AD0B44203D0A54272
:10157C0001D157450CD01CBC90469946A246F0BDF3
:10158C0066463E43F7D1AC42F5D154461443F2D1F2
:10159C000120C845EFD1994207D0002DEBD163460D
:1015AC001F433800471EB841E5E70020E3E7C0467B
:1015BC00FF070000F0B54F464646D6464D00C0B575
:1015CC000E03C90F8A462C491F035C008046360B5C
:1015DC006D0D91463F0B640DDB0F8D421ED08C427E
:1015EC0016D0002D1ED130438446002C01D13A4335
:1015FC0023D06246002A1AD09A4529D0514602209F
:10160C000139084001381CBC90469946A246F0BDF1
:10161C0039001143E5D002204042F4E73043FAD1BF
:10162C00AC420FD0002C0FD13A43E7D00CE0012292
:10163C00013B934318000130E5E763460020002B83
:10164C00E1D0DBE73A43E6D19A45D7D1A542D5DCC8
:10165C00A54205DBBE42D1D808D00020BE42D2D272
:10166C0050460123013898430130CCE7C845C5D812
:10167C000020C845F4D3C6E7FF070000F0B54F467D
:10168C004646D6464D00C0B50E03C90F8A462E49B4
:10169C001F035C008046360B6D0D91463F0B640DAD
:1016AC00DB0F8D4218D08C4211D0002D18D1304355
:1016BC008446002C1ED13A431CD163460020002BDB
:1016CC0030D0514602200139084001382AE0390057
:1016DC001143EAD0022025E03043FBD1AC4226D0A6
:1016EC00002C26D13A4324D151460220013908401E
:1016FC00013817E06246002A0FD09A45E1D1A54285
:10170C0005DBBE42DDD819D00020BE420AD25046BD
:10171C00012301389843013004E00122013B93433B
:10172C00180001301CBC90469946A246F0BD3A43C5
:10173C00D0D19A45C5D1A542C3DCE0E7C845C0D895
:10174C000020C845E3D3EDE7FF070000F0B557468E
:10175C00DE464E464546E0B5834606000F0348007C
:10176C0087B092461D003F0B400DCC0F002800D1D6
:10177C006FE0DE4B984238D08023FF001B041F43E0
:10178C00730F3B430193DA4B0027994600239B468A
:10179C00F60081442B0369001B0B52469846490DF9
:1017AC00ED0F002900D185E0D04B994200D173E0B8
:1017BC004346DA0080231B0413435246CC48520F95
:1017CC0084461343524600206144D20089442100D0
:1017DC00694000918C46012149448A460F2F00D95B
:1017EC0090E0C449BF00CF59BF465B463B430193D1
:1017FC0000D06AE102230827002681469B46C9E7F0
:10180C0032005846019B61460091022800D175E0D8
:10181C00032800D1FEE1012800D02CE10023002791
:10182C00002600253F032A0D3F0BB34812053A430F
:10183C0002401B051343009A5B00D1075B080B4366
:10184C003000190007B03CBC90469946A246AB4606
:10185C00F0BD5B463B43019300D12FE1002F00D13B
:10186C00A5E1380000F0C0FE03000B3B1C2B00DD93
:10187C0096E11D22D31A5A460100DA405E46083919
:10188C008F4013008E403B4301939C4B00271B1A47
:10189C00994600239B467DE7414653460B439349AB
:1018AC008C46E144002B00D01AE10222022017439F
:1018BC0000228CE7134300D10DE14346002B00D1ED
:1018CC0081E1404600F090FE02000B3A1C2A00DD3C
:1018DC0072E10100434608398B4098461D239A1A41
:1018EC005346D3401A004346134352468A40494656
:1018FC00081A824989468144002068E77B4B0027FF
:10190C0000268EE7140C1204120C1100370C36044E
:10191C00350C794328008C462E0060436044834686
:10192C0056432100300C804658467943404402917E
:10193C00844506D98846802149028C46E0444146BC
:10194C0002913604010C360C00048B4681191E0CD6
:10195C001B041B0C0391190079438C46280075431A
:10196C006544A8465843050C45447743A94203D91E
:10197C00802149028C466744290C8C4639000004AE
:10198C00000C2D042D186144AB440591594604916B
:10199C0001990F043F0C080C390051434243904607
:1019AC0002008C46090C8B4662437C4344445C44E5
:1019BC00A04503D98021490288464244210C88461F
:1019CC0061460904090C8C46390059434343704362
:1019DC007E430F0CF6182404BE19644442448C4612
:1019EC00B34203D980235B0298464044029B614674
:1019FC009846049B370443449B46AB45AD416B4230
:101A0C000D0405992D0C8C467F196744FD18A846CA
:101A1C005D462D19A542A44193466442A446C34495
:101A2C00DC448F42BF4198459B4193459241A4456C
:101A3C00A4415B427F421F43360C52426442BF19A1
:101A4C002243BF18624638184302D20D0399134340
:101A5C006A020A43501E82416146ED0D2A434E0232
:101A6C003243D90100D4B3E001265008324002437E
:101A7C00DE0732435B08224C5444002C62DD5107D4
:101A8C0009D00F201040042805D0101D904292411F
:101A9C0052429B180200D90104D580241948E40055
:101AAC00034054441848844200DD27E75E075B027C
:101ABC00D2081F0B630516435B0DB2E60023994653
:101ACC000133042700269B4664E6032301978146D5
:101ADC000C279B465EE6012201201743002276E686
:101AEC00032303201F43434671E6C046FF07000053
:101AFC0001FCFFFF1C6A0108FFFF0F800DFCFFFFBC
:101B0C00FF030000FFFFFFFEFE07000000238027FD
:101B1C0000933F030026434B83E6019B3200A4460F
:101B2C00584670E6AC466EE6802701993F03394271
:101B3C002DD03B422BD11F433F033F0B009516008A
:101B4C00384B6EE601252D1B382D00DD66E61F2D6A
:101B5C0040DC35481C005044160082408440EE4066
:101B6C00501E824134431443EB40620709D00F22CC
:101B7C002240042A05D02200141D94428041404288
:101B8C001B181A023ED501230027002649E68027A0
:101B9C00019B3F031F433F033F0B0094214B40E647
:101BAC0003005A46283B9A40002601926DE658469F
:101BBC0000F01AFD203057E603005246283B9A40AD
:101BCC001300002293E6504600F00EFD20307BE619
:101BDC00CA4650E71F201E004042041BE640202D41
:101BEC0003D0124C5444A3401A43501E824132433A
:101BFC0007260027164009D00F20002310401400A0
:101C0C000428B9D122005E075B021F0BD2081643D1
:101C1C00002306E680273F031F433F033F0B1600BC
:101C2C00004BFEE5FF0700001E0400003E04000010
:101C3C00F8B557464E464546DE460C000903E0B55E
:101C4C00490A460F5F0031431E03DB0F760A9B46A1
:101C5C00530F3343C84E6500C000E40FD2006D0D26
:101C6C00A24681467F0D9C469046B74200D1B9E012
:101C7C005B46012673409B46EE1BA34500D183E0D7
:101C8C00002E63DD002F00D0B1E06346134300D17A
:101C9C0023E1731E002B00D0BAE1861A6346B042D2
:101CAC0080410125C91A4042091A0B0200D447E1B0
:101CBC0049024B0A98464346002B00D189E1404625
:101CCC0000F092FC0300083B1F2B00DD7CE120227E
:101CDC003000D21A4146D040994002009E400A433F
:101CEC009D4200DD6AE15D1B6B1C1F2B00DD94E146
:101CFC00202110003500C91A8E40DA408840DD40A2
:101D0C00711E8E41110007222843002506433240E4
:101D1C00002A09D00F233340042B05D0331DB342C6
:101D2C00B641764289191E000B0200D43DE26A1CB2
:101D3C00914B55056D0D9A4200D119E18F4AF60869
:101D4C000A40570752023743120B9BE0002E00D07B
:101D5C00C5E06E1C7605760D012E00DC48E1674669
:101D6C00861ACB1BB042BF417F42B8461F00434688
:101D7C00FF1A3B00B8461B0200D55FE137439AD1EE
:101D8C0000220024002579E0002E00DCFAE0002F70
:101D9C0000D18DE0784B9D4267D0802367461B04B1
:101DAC001F43BC46382E00DC52E1634613435A1ED7
:101DBC0093411E1886428041404209180B0200D400
:101DCC00BEE06D4B01359D4200D1D2E06B4A7308E9
:101DDC000A4001210E401E435108D30707221E431F
:101DEC00324095E71E00164300D045E740E7624BB2
:101DFC009D423AD0802367461B041F43BC46382EB5
:101E0C0000DDEBE01F2E00DC3AE133006746203B9F
:101E1C00DF403B00202E05D04027BF1B6646BE404E
:101E2C00324390464646721E96413343DAE0002B0D
:101E3C0000D114E26346134300D168E180234E07BE
:101E4C00C008C9081B030643194208D06046C008E5
:101E5C00184204D163460100D2085E071643F30012
:101E6C009946C900720F444D11434B46DE08424B54
:101E7C004F073743CA089D4200D16EE012036D052F
:101E8C00120B6D0D00211203130B0A0D12051A43D0
:101E9C003B4B2D0513402B435B00E4075B082343AE
:101EAC00380019003CBC90469946A246AB46F8BD9A
:101EBC006346134311D0731E002B00D007E1861824
:101ECC008642804161444042091801250B0237D5F6
:101EDC0002257BE73E00614691463500C5E75C462E
:101EEC00002D00D0E1E00B000343F3D0731C00D1B4
:101EFC00ACE1214B9F4200D13AE1F343382B00DD9A
:101F0C006FE11F2B00DD8CE120250E00ED1AAE4099
:101F1C00B0460600AA46DE40454635432E005546DF
:101F2C00D940A8406346451EA8415B1A9C463043E5
:101F3C00161AB242924163465242991A3D00B4E6D7
:101F4C0007223240002A00D0E4E60B4BF6084F077C
:101F5C003743CA089D4200D090E73B00134300D1A1
:101F6C00A6E180231B031A431203120B024D89E7CF
:101F7C0015000022002785E7FF070000FFFF7FFF09
:101F8C00FFFF0F80002E00D0C7E06B1C5E05760DA6
:101F9C00012E00DCF0E0C84DAB4200D1B9E0851851
:101FAC000A00854289416244494251180722CE07F2
:101FBC006D082E43490832401D00A9E6BF49ED1AB1
:101FCC00114007223240A3E6320028388240002616
:101FDC0086E6300000F008FB203073E663461343BE
:101FEC005A1E9341C61AB04280414042091A5CE61F
:101FFC000E00674606431743002D5ED1002E00D01D
:10200C00F3E0002F00D11EE15C46614691462CE7BF
:10201C00A94FBE427BD01E00F1E610001F3DE840E8
:10202C00202B03D04021CB1A9A401643731E9E419D
:10203C000722064332400021002583E7161A634627
:10204C00B2428041591A40420B1A98465C4632E61D
:10205C001F2E00DDABE02027BB1B9A46634657467C
:10206C00BB40994613004F46F3401F433B00574675
:10207C00BA40571EBA4113436246F240891898E69B
:10208C002027BB1B9A4663465746BB409946130014
:10209C004F46F3401F433B005746BA40571EBA41C8
:1020AC0013436246F240891A9CE7834B9F425FD0F0
:1020BC0080252D047342294320E7002E0CD1002FDC
:1020CC0000D1D0E05C46614691467B4DCDE67A4F1F
:1020DC00BE421CD01E0065E6002F18D0C0084E076B
:1020EC0006438020C9080003014208D06346DC087F
:1020FC00044204D12100DA46D2085E071643F300ED
:10210C00994601245346C900720F11431C406A4D75
:10211C00ABE61D0000220027B4E6002D59D10B00C0
:10212C00034300D1D6E6731C00D1B2E0624B9F4250
:10213C001ED0F343382B6FDC1F2B00DD97E02025DE
:10214C000E00ED1AAE40B0460600AA46DE404546EB
:10215C0035432E005546A840D940451EA8418C4415
:10216C000643B61896429241514261443D0025E621
:10217C003D006146914678E60B000343002D00D0EC
:10218C0055E6002BF5D06346134300D16DE6861857
:10219C008642804161444042091800220B0200D45F
:1021AC00D0E6464B01351940B2E5B1465DE6330049
:1021BC006746203BDF403B00202E05D04027BF1B4D
:1021CC006646BE40324390464646721E96413343A5
:1021DC00EFE5394B9F42CBD080252D047342294328
:1021EC00A8E70843411E8841A2E6002F00D13CE637
:1021FC006346861ACF1AB0429B415B42FB1A984643
:10220C001B024ED5161A6346B2429241591A5242DB
:10221C00891A5C4600227BE501430E00711E8E413B
:10222C009FE71D000E00203DEE40B046202B04D051
:10223C004025EB1A99400843814648464346411EC7
:10224C008841184374E60022002417E6161A6346E8
:10225C00B2429241591A5242891A3D0025E5614613
:10226C009146154D01E680220024120379E61D00EB
:10227C000E00203DEE40B046202B04D04025EB1A3A
:10228C009940084381464E464346711E8E411E437B
:10229C0067E7861896429B4161445B42C9183D0032
:1022AC008CE547463743CED007224146324049E6BB
:1022BC0000273A00E6E5C046FF070000FFFF7FFF5E
:1022CC0070B50C4E0D031C0349005B002D0B490D22
:1022DC00240B5B0DB14208D0064900208B4203D180
:1022EC0014432000441EA04170BD05430120002D65
:1022FC00FAD1F1E7FF07000030B5144D0A034B008B
:10230C00120B5B0DC90F0024AB4211DD104CA34224
:10231C0010DC8024640322430E4CE41A1F2C0CDDC9
:10232C000D48C31ADA4013005C42002900D11C008E
:10233C00200030BD094BCC18FAE7094DE040AC4603
:10234C0063449A4013000343EEE7C046FE030000CB
:10235C001D0400003304000013040000FFFFFF7F86
:10236C00EDFBFFFF70B500282DD0C317C5185D40DD
:10237C00C40F280000F038F9154B1B1A5B055B0DD8
:10238C000A2815DD0B38854000222D032D0B00216A
:10239C0010002D030A0D2D0B12052A430D4D1B05A4
:1023AC002A4013435B00E4075B082343190070BD0C
:1023BC0002002900153291400A000B21081AC54071
:1023CC002D032D0BE3E70024002300250022DEE77C
:1023DC001E040000FFFF0F8010B5041E25D000F076
:1023EC0003F9144B1B1A5B055B0D0A2812DD0B3825
:1023FC00844000222403240B0021100024030A0D26
:10240C00240B120522430C4C1B05224013435B008A
:10241C00590810BD02002100153291400A000B2111
:10242C00081AC4402403240BE6E7002300240022EE
:10243C00E2E7C0461E040000FFFF0F804100090EBA
:10244C004B1C70B5DBB24602750AC40F012B14DDB0
:10245C00E0239B006D07360BCB1800210A0D2800DA
:10246C0012051C4D32435B052A405B0813435B008D
:10247C00E4075B082343190070BD002914D1002D1B
:10248C001ED0280000F0B0F80A281CDC0B232A0010
:10249C001B1ADA40030015339D400F4B12031B1A15
:1024AC005B05160B5B0DD8E7002D06D0320B802692
:1024BC0036036D071643094BCFE7084B0026CCE7D4
:1024CC0000230026C9E703002A000B3B9A40002595
:1024DC00E3E7C046FFFF0F8089030000FF07000001
:1024EC00F0B54C00640D0B03621C5B0A460F5205E1
:1024FC00C90F1E43C500520D012A29DD374BE718C1
:10250C00FE2F1CDC002F3BDD8001431E984107226F
:10251C00F3006D0F03432B431A40002A04D00F2203
:10252C001A40042A00D004338022D2041A4024D04A
:10253C000137FAB2FF2F02D09B01580A01E0FF22AB
:10254C0000204002D205400AC90710430843F0BDE1
:10255C003543002C04D1002D0AD100220020F0E7D5
:10256C00002DECD08020C0033043FF22E9E700248B
:10257C0000235B02580AE2B2E3E7DB083C00F8E711
:10258C003B001733F3DB80231B0433431E26F61B5F
:10259C001F2E14DD02225242D71B1A00FA401700DC
:1025AC00202E04D00E4A94466444A3401D432B00B5
:1025BC005D1EAB4107223B431A400027ADE7094A99
:1025CC002800A218954093406C1EA541F0400722AC
:1025DC002B4303431A4000279FE7C04680FCFFFFB4
:1025EC00A2FCFFFF82FCFFFF1C2101231B0498426D
:1025FC0001D3000C10391B0A984201D3000A083988
:10260C001B09984201D30009043902A2105C40183E
:10261C007047C046040302020101010100000000E2
:10262C000000000010B5002903D1FFF7DDFF2030BA
:10263C0002E0081CFFF7D8FF10BDC046F0B50B78C0
:10264C00FF24002B00D104780A4B1D78002D0EDDE1
:10265C000023002702E00133AB4209DAC25CA2423C
:10266C00F9D2CE5C002EF6D1DFB21400F3E70027CE
:10267C003800F0BD1C000020074B1978002908D049
:10268C000300411801201A78104001338B42FAD113
:10269C0070470120FCE7C0461C000020F0B5DE4668
:1026AC0057464E46C0B582B032200FF029FB071EAC
:1026BC0000D171E0394B1B78FF20FE2B66D1384ED0
:1026CC009A3B9B46B344354D7B1C0193354B994645
:1026DC0023E000243B19013B1B78002B01D0013473
:1026EC00E4B220000FF00CFB5346D86000283FD01A
:1026FC00220039000FF051FD4B461B7801334A463E
:10270C0013702200002138000FF050FD009B1B7845
:10271C00FE2B37D114365E4534D0280014302B00F4
:10272C00791B1A78CA5401338342FAD11435B24654
:10273C001422019930000FF030FD142200213800D2
:10274C000FF034FD00952A78931CDBB2012BC0D915
:10275C00390000240A7001350134E4B200952A785E
:10276C00931CDBB2012BB5D90131322CF2D1B1E77C
:10277C001422002150460FF019FD38000FF0CAFA50
:10278C000E2003E038000FF0C5FA002002B01CBC8C
:10279C0091469A46A346F0BDFB20F7E700DC010802
:1027AC00B8680020BB110020F0B583B0234B1B8808
:1027BC009BB2234A934233D01A0A39D021490A706A
:1027CC00214A13701F4B1E78002E35D00124022293
:1027DC006B46D91D00239C461C4D63460B700B7831
:1027EC00DBB20A2B15D8631E9800C0184000C01825
:1027FC00124BD7180B783F881B185B00EF52023234
:10280C0092B20B780133DBB20B700B78DBB20A2B74
:10281C00EED90134E4B2B442DFD9002003B0F0BDEC
:10282C00084B01221A70084B00221A70FA20F5E7A7
:10283C00044A01211170C3E70020EFE700D801081A
:10284C00FFFF00001C0000201C100020780A002054
:10285C00F0B583B0114B1B78002B1AD00124002348
:10286C0001930F4E0D4F08E0601C04F069FB0AE069
:10287C000134E4B23B78A3420DD32500631E5B0008
:10288C00995B0029F0D102351B2DF1DD0A23019350
:10289C00EEE700230193019803B0F0BD1C0000206B
:1028AC002C6D0020F0B583B03222002113480FF0BC
:1028BC007DFC134B1B78002B1AD0012400230193B1
:1028CC000E4E0F4F08E0601C04F03AFB0AE0013496
:1028DC00E4B23B78A3420DD32500631E5B00995BE9
:1028EC000029F0D102351B2DF1DD0A230193EEE70F
:1028FC0000230193019803B0F0BDC0462C6D00205D
:10290C001C000020F8B50F4B1B780025002B17D0AE
:10291C000D49022004F0E4FA01240025094F0A4E67
:10292C000134E4B23B78A3420AD3611E49008919F1
:10293C00601C04F0D5FAA31C1B2BF1DD0A25EFE774
:10294C002800F8BD1C0000202C6D0020F0B5D646E8
:10295C004F464646C0B50026002398461A4B9A4669
:10296C001A4B994605E00136F6B24B461B78B3423A
:10297C0024D3B3009B195B0052469B5C002BF2D016
:10298C00B500AD196D00104B9C46654444461C3493
:10299C00A4B247462137BFB22B781B026978C918FD
:1029AC0089B2200004F0CCFA02350134A4B2BC4246
:1029BC00F2D1434605339BB29846D4E700201CBCA9
:1029CC0090469946A246F0BD180F00201C0000202E
:1029DC00F0B5DE4657464E464546E0B583B06B46ED
:1029EC000022DA801C240027184B9A469B460CE0E8
:1029FC004B469B004B445B005B4400225A720137F0
:102A0C00FFB2134B1B78BB4217D3BD00ED196D0001
:102A1C005544631D9BB298466B469E1DB9463100CA
:102A2C00200004F05DFA33886B701B0A2B700134A4
:102A3C00A4B20235A045F2D1DAE7002003B03CBCC9
:102A4C0090469946A246AB46F0BDC046180F0020F2
:102A5C001C000020F0B5D6464F464646C0B582B0A5
:102A6C006B460022DA80224B1B78002B1DD00025F0
:102A7C00204E1F4CE9B2490071182800CB3080B2AF
:102A8C0004F02EFA0135ADB22278EBB29A42F1D8AD
:102A9C00194B99462C009934A4B2CB35ABB298465D
:102AAC006B469E1D00239A4609E00025F0E74B4635
:102ABC0052465A720A239C46E144444510D0671D85
:102ACC00BFB24D463100200004F00AFA33886B7017
:102ADC001B0A2B700134A4B20235BC42F2D1E6E7DA
:102AEC00002002B01CBC90469946A246F0BDC046E0
:102AFC001C000020700E00200C0E002070B584B05D
:102B0C000E21694400230B8003AA1380E42004F0F7
:102B1C00E7F90026002802D10E236B441E780E2103
:102B2C006944E52004F0DCF9040003A9E62004F074
:102B3C00D7F90443A4B20025002C06D10E236B4414
:102B4C001D882D0403AB1B88ED180E216944E7206A
:102B5C0004F0C6F9040003A9E82004F0C1F92043ED
:102B6C0080B20024002806D10E236B441C88240458
:102B7C0003AB1B88E4180E216944E92004F0B0F97A
:102B8C00002807D10E236B441B88190A284A1170A0
:102B9C00284A13700E216944EA2004F0A1F9002898
:102BAC0007D10E236B441B88190A234A1170234A40
:102BBC0013700E216944EB2004F092F9002807D120
:102BCC000E236B441B88190A1D4A11701D4A137081
:102BDC00174B1B78002B03D0164A1278002A12D1FF
:102BEC00154B1B78002B03D0144A1278002A11D1F4
:102BFC00134B1B78002B03D0124A1278002A10D1E9
:102C0C00002004B070BD009222002900300005F0B5
:102C1C0007FBE5E7009222002900300005F000FBDD
:102C2C00E6E7009222002900300005F0F9FAE7E708
:102C3C00E9100020090E0020EA1000200A0E0020E6
:102C4C00EB1000200B0E0020F8B5DE4657464E4622
:102C5C004546E0B50F00160099460AAB1B789B461B
:102C6C000BAB1D780CAB1B789A460DAB1C780EABDE
:102C7C001B78984681B2E42004F062F9390A89B2D3
:102C8C00E52004F05DF9B9B2E62004F059F9310AF7
:102C9C0089B2E72004F054F9B1B2E82004F050F9FD
:102CAC004B461902594489B2E92004F049F92D0226
:102CBC005544A9B2EA2004F043F924024444A1B2D9
:102CCC00EB2004F03DF900203CBC90469946A2460E
:102CDC00AB46F8BD10B582B08A206B46991D4000FA
:102CEC0004F0FEF8002800D064E06B4606331B8825
:102CFC00494A93711B0AD37116206B46991DFF30FC
:102D0C0004F0EEF800285CD16B46DA88424B1A804E
:102D1C008B206B46991D400004F0E2F8002855D139
:102D2C006B46DA883C4B5A8018206B46991DFF3055
:102D3C0004F0D6F800284ED16B4606331B88364A71
:102D4C0013711B0A53718C206B46991D400004F0C3
:102D5C00C7F804001A2001A9FF3004F0C1F804439D
:102D6C00A4B2002C3ED101AB1B881B046A46063270
:102D7C0012881343284A93608D206B46991D40009E
:102D8C0004F0AEF800283BD16B4606331B88224A70
:102D9C0013731B0A53731C206B46991DFF3004F0F0
:102DAC009FF8002832D01D4BDA7E1B4BDA760020C0
:102DBC0002B010BD184B194A91799971D279DA7118
:102DCC009AE7164B1A88144B1A80A1E7134B5A88B2
:102DDC00114B5A80A8E7104B104A1179197152798E
:102DEC005A71B0E70E4B1B78002B04D00A4BE12232
:102DFC0052029A60C0E7094B9A68074B9A60BBE78E
:102E0C00054B18225A7300221A73C4E76B46DA88F2
:102E1C00014BDA76CBE7C0469C680020000000200E
:102E2C00760A002010B51A4CE3795B01A17919439D
:102E3C008A20400004F084F821881620FF3004F02A
:102E4C007FF861888B20400004F07AF863791B02CC
:102E5C00217B19431820FF3004F072F821898C2053
:102E6C00400004F06DF861891A20FF3004F068F816
:102E7C00637B1B02217919438D20400004F060F81C
:102E8C00E17E1C20FF3004F05BF8002010BDC04632
:102E9C009C680020F0B5CE46474680B589B01E230D
:102EAC006B4400221A800125EC241E000F23984647
:102EBC0004E00434A4B20135072D58D031002000B1
:102ECC0004F00EF80028F4D131880B0A1A09AA4232
:102EDC00EFD140460340ECD0D00082182748814601
:102EEC0091444A4653701172AF00BFB23800E930BA
:102EFC0080B2310003F0F4FF33881A0A49468A7015
:102F0C004B713800EA3080B2310003F0E9FF3388AE
:102F1C001A0A4946CA708B71EB37B8B2310003F00C
:102F2C00DFFF33881A0A49460A71CB71EFB2487831
:102F3C00390004F0F7FE4B46197A9B784A100120B1
:102F4C0002400140002005904846C0790490484654
:102F5C008079039048464079029048460079019068
:102F6C004846C0780090380004F0F4FFA1E7002038
:102F7C0009B00CBC90469946F0BDC04654140020D4
:102F8C0010B5FFF711FCFFF7BDFCFFF721FDFFF7B4
:102F9C0061FDFFF7B3FDFFF79DFEFFF77BFFFFF72A
:102FAC007DFB10BD70B58EB012256D4404AB009343
:102FBC0007AB2A0008A9012008F006FF03AC009417
:102FCC0005AB0E226A4406A9022008F0FDFE01237F
:102FDC000A9300260B962B88099309A908980CF0E4
:102FEC00C1FF0A9602230B932388099309A905981C
:102FFC000CF0B8FF2988002208980DF099F80520EC
:10300C0009F072FA218805980DF08CF8002300283D
:10301C0002D018000EB070BD12336B441988012217
:10302C0008980DF085F8052009F05EFA03AB1988B5
:10303C0005980DF077F8013843424341DBB2E8E7DD
:10304C0010B5064B064A12689A4206D004F020F8D6
:10305C00002802D1024B014A1A6010BDADDEEFBE52
:10306C00F07F002010B509F0D5FB0400E1231B0212
:10307C0043608023DB00036180235B0183600EF0DF
:10308C008DFC2268136820210B43136010BD0000D7
:10309C0010B5044B9968FDF72FF843425841C0B264
:1030AC0010BDC0468800002070B504001B49FDF718
:1030BC0023F806000625002E23D019492000FDF721
:1030CC001BF800281FD017492000FDF715F8002821
:1030DC001BD015492000FDF70FF8002817D0134915
:1030EC002000FDF709F8002813D011492000FDF746
:1030FC0003F800280FD0013DEDB2002DDBD10020EC
:10310C0070BD0120FCE70220FAE70320F8E7042059
:10311C00F6E70520F4E70620F2E7C046C86C010884
:10312C00CC6C0108D06C0108D46C0108D86C010877
:10313C00DC6C0108F0B583B0070001240D4D0326AB
:10314C00A7420FD00C4B1B881A0A2A706B70AC70FC
:10315C0000960A2300220021200005F079F90A20AC
:10316C0009F0A3FC0134E4B2062CE9D1002003B031
:10317C00F0BDC046E80E002050000020F0B5DE4641
:10318C0057464E464546E0B585B000AF494B1D78D5
:10319C00EB1DDB08DB006A46D31A9D466C46002DFE
:1031AC000BD0454A6E1EF6B2013636190021197045
:1031BC00118001330232B342F9D101380123235477
:1031CC001622424302323D4BD21800213A4E4000A7
:1031DC000123984601339C46FD60A34603E0013170
:1031EC000232052911D01388002BF8D0855BA94633
:1031FC0045468D40AA464D46544625438553DB082B
:10320C005B44013B64461C70E9E7FD685C460223A5
:10321C0099464B460133DBB29946002D40D02748E6
:10322C000021002601235B424B449C462CE00132DA
:10323C00062A21D05300C35A002BF8D0DB08013BDF
:10324C00E15C0029F3D1511E8A4601215546A94063
:10325C008A4619494546695A8B4651465D4629436B
:10326C008A461549454656466E524946E154FE6813
:10327C000136F3B2FB60DAE7B968FE687D680131AC
:10328C001630CBB2AB4209D2635C6345F7D14B002D
:10329C0098460122B960FE607D60CBE7002EB8D164
:1032AC000020BD4605B03CBC90469946A246AB46B4
:1032BC00F0BDC0461C000020A00C0020780A0020A5
:1032CC00F0B5DE4657464E464546E0B58FB0050094
:1032DC008A463222002101A80EF068FF1922002133
:1032EC005A480EF063FF2900681E0023584A1354F5
:1032FC00584A1354162545430235574BED182A00EE
:10330C00012053469CB203E00130023207280FD053
:10331C001388002BF8D0DB08A342F5D14C4B534457
:10332C00013B01221A70494B52461A70C0B285E01B
:10333C004A4B1E78002E11DD0123FF24454F00203F
:10334C00AC4602E00133B34207DC9942FAD05A1E74
:10335C003F4DAC54BA181070F4E7654600243E4B50
:10336C0098460E23434456469B46A9461DE04D46BF
:10337C00B246340034E00231814215D00B88002B68
:10338C00F9D0DB08DBB2013BD75C002FF3D1304F17
:10339C007F5D0137FFB22E4EF65CBE42EBD92C4E50
:1033AC00F7542C4EF454E6E7564601A8FFF764F99F
:1033BC00002813D101A92648FFF740F90130C4B207
:1033CC00B442D4D0651E01AB01225A551620684375
:1033DC00811C414458441A00B246CFE74D46B246D0
:1033EC001C4B1B19013B1A780023002A0ED01749DD
:1033FC008C46184E00E00A00581C6146CC54B31899
:10340C00013B19781400C3B20029F4D101200F49F3
:10341C000F4B53441F00013F03E0013002350728D6
:10342C000BD02B88002BF8D03A788A18013A1278F6
:10343C00DB089A42F1D1C0B200E000200FB03CBCD6
:10344C0090469946A246AB46F0BDC0465469002052
:10345C00B4100020D0100020780A00201C0000209E
:10346C00F0B587B007000E0005921D00374B187899
:10347C00FFF726FF0490002D20D0344B1C78B4426B
:10348C005FD0BC4234D000240598FFF7EBFD0498C4
:10349C00FFF7E8FD2D4B1B78A34246D02B4B197838
:1034AC0000230393013B02930193033300930B001E
:1034BC00049A059805F01AFA07B0F0BD244B9B1935
:1034CC00013B1A78012A10D0224B9B18013B1C7827
:1034DC001E4B1B78BB42D7D109F0FCFB07001E4BDF
:1034EC00196832000FF05CF80DE0184B1C78EFE710
:1034FC0009F0F0FB07000024184B19682B00320070
:10350C0038000FF04DF8164B196838000FF068F8BA
:10351C003800FCF7FBFD82B232233900059809F024
:10352C00BFF964200BF0F8FAAEE7049809F072F9D1
:10353C00012109F005FAB1E709F0CCFB070004956D
:10354C00DAE7BC42F8D004959EE7C0461C10002078
:10355C00B410002054690020780000207C0000206A
:10356C0080000020F0B5D6464F464646C0B584B024
:10357C0005000390564C574B220043CB43C21968AD
:10358C0011609B8893802000FCF7C0FD82B2012360
:10359C005B42009333332100280009F059F90124D0
:1035AC004D4F4B4D012676422200390028000EF07B
:1035BC00F7FF2800FCF7AAFD82B2009632232900FF
:1035CC00039809F045F90134062CEDD101235B4237
:1035DC000093333303224149039809F039F9404BE6
:1035EC001B78002B65D0002601277F423D4B994666
:1035FC000C234B449A462AE007231340D2083A493D
:10360C0033480EF0CDFF324D2800FCF77FFD82B21F
:10361C00009732232900039809F01AF90234B442B6
:10362C0007D02288002AE7D1304929480EF0B8FF8C
:10363C00E9E746460097322302222D49039809F008
:10364C0007F90136F6B2264B1B78B34231D9721CFE
:10365C001F4C284920000EF0A3FF2000FCF756FD5C
:10366C0082B2009732232100039809F0F1F8162555
:10367C0075434B46EB5A5900C91849001E4BC918E3
:10368C00052220000EF0E1FF0097322305222100D5
:10369C00039C200009F0DCF8009732230122174923
:1036AC00200009F0D5F8AC1C4C445544B0462E0013
:1036BC00B7E701235B42009333330122104903988F
:1036CC0009F0C6F804B01CBC90469946A246F0BD61
:1036DC00481000208C6C0108A06C0108987401083B
:1036EC001C000020780A0020B86C0108B46C01089A
:1036FC00346B0108A86C0108F46C01089C6C01087F
:10370C0078880108F0B5C64600B584B00500039072
:10371C00304C314B220043CB43C243CB43C21B68DA
:10372C0013602000FCF7F2FC82B201235B42009391
:10373C0033332100280009F08BF8284B1B78012229
:10374C009046002B2CD0264E25E023000A2C1AD0B4
:10375C005C1CA95B802212021A410A42F5D01D4F53
:10376C00230042461F4938000EF01AFF3800FCF7C0
:10377C00CDFC82B201235B420093333339000398B2
:10378C0009F066F8E1E743460133DBB29846134B88
:10379C001B78434504D300234246551E6D00D7E7E2
:1037AC000C4C114B220023CB23C223CB23C203CBC3
:1037BC0003C22000FCF7AAFC82B201235B420093F7
:1037CC0033332100039809F043F804B004BC90464D
:1037DC00F0BDC046481000203C6C01081C000020C5
:1037EC002C6D0020586C01086C6C0108F0B5D646A5
:1037FC0000B584B0039009F06DFA04000023037047
:10380C008D4B1A788D4D8E4928000EF0C9FE29007B
:10381C0020000EF0E5FE8B4B1A788B4928000EF039
:10382C00BFFE290020000EF0DBFE04230093023BB8
:10383C000022864928000EF0B3FE290020000EF06D
:10384C00CFFE834A834928000EF0AAFE29002000EF
:10385C000EF0C6FE804A814928000EF0A1FE290018
:10386C0020000EF0BDFE7E4B2A0043CB43C21968EC
:10387C001160998891809B799371290020000EF03A
:10388C00AFFE01266D4D774B9A460EE06B4B764A98
:10389C00116819609188998092799A716749200012
:1038AC000EF09EFE0136062E39D032006F492800EC
:1038BC000EF076FE290020000EF092FE5346F35CCB
:1038CC00042BEBD85346F35C9B00694AD3589F46B4
:1038DC005A49684B0A0083CB83C203CB03C21B78C3
:1038EC001370DBE7554A644B83CB83C2D6E753494D
:1038FC00624B0A0083CB83C283CB83C21B881380A9
:10390C00CCE74E495E4B0A0083CB83C283CB83C288
:10391C0019681160998891809B799371BEE747492A
:10392C00584B0A0061CB61C261CB61C220000EF022
:10393C0057FE554E01270DE0404D3A0053492800E3
:10394C000EF02EFE290020000EF04AFE013738360C
:10395C00072F18D03368002BEED0706A06F068FF82
:10396C000500BB00043B4A4AD05806F061FF0090AA
:10397C002B003A00474931480EF012FE2F49200027
:10398C000EF02EFEE2E72000FCF7C0FB201803220D
:10399C0041490EF002FC2000FCF7B8FB20181D2258
:1039AC003E490EF0FAFB2000FCF7B0FB82460022E9
:1039BC003B4E214F02E02A00052D13D0551C3B78BD
:1039CC00013B5B00995B80231B0213410B42F2D03D
:1039DC002A00344919480EF0E3FD184920000EF076
:1039EC00FFFDE8E72000FCF791FB53461B041B0C82
:1039FC0098420ED02000FCF789FB201803222649A0
:103A0C000EF0CBFB039B002B09D104B004BC9246F7
:103A1C00F0BD2018052224490EF0BFFBEAE7200078
:103A2C00FCF774FB82B201235B4200933333210019
:103A3C00039808F00DFFE8E71C1000204810002048
:103A4C00806A0108770A00209C6A0108B86A01089C
:103A5C00D86A0108E46A0108FC6A0108086B0108CD
:103A6C00246B010898100020406B0108386B01088A
:103A7C005C6A0108486B0108606B01086C6B0108FB
:103A8C00886B0108A86B01086C180020C06B01083A
:103A9C0000140020DC6B0108346B01080C6C01086D
:103AAC002C6D00202C6C0108346C0108F0B5C64656
:103ABC0000B505002949FCF71FFB002810D0284948
:103ACC002800FCF719FB002845D02B789846232BAF
:103ADC000BD0244B1F78002F2AD0234E00241CE03F
:103AEC00224B187804BC9046F0BD681C0EF0CBF845
:103AFC00C3B2002B03D01B4A12789A4206D21B4A3F
:103B0C00127866209A42EDD110B2EBE718B2E9E7D1
:103B1C000134E4B20A36BC420AD031002800FCF76A
:103B2C00EBFA0028F4D14346002BF1D020B2D9E7B0
:103B3C000F4F002639002800FCF7DEFA002805D0CC
:103B4C0001360A370A2EF5D16420CBE73402FE2069
:103B5C00204300B2C6E7FF20C4E7C046C06C010892
:103B6C00C46C01081C000020180F00201C10002041
:103B7C000C0E0020F0B583B001900D002A4C2700EC
:103B8C00103721002800FCF7B7FA002843D0043482
:103B9C00BC42F6D1254B1B78012B0FD9244C9F002E
:103BAC00FF187F0023000A3BFF1821002800FCF7B8
:103BBC00A3FA002831D00A34BC42F6D11D4C2700A0
:103BCC00643721002800FCF797FA002828D00A3423
:103BDC00BC42F6D1184C194B1C601E0023681F68A0
:103BEC003800FCF793FA0200390028000EF01CFD97
:103BFC00002817D064683460002CEFD1019B98002A
:103C0C009C46604440000E4E801929000EF004FDC5
:103C1C00FEF79CFE02E0062000E0072003B0F0BD9A
:103C2C000720FBE70820F9E7706A01081C00002058
:103C3C00220F00200C0E00209C000020A010002061
:103C4C00180F0020F0B5C64600B507000E003A4D1F
:103C5C00002429003000FCF74FFA002850D0013422
:103C6C000A350A2CF5D1354C2500103521003000D1
:103C7C00FCF742FA002858D00434AC42F6D1304B51
:103C8C001B78012B0FD92F4C9D00ED186D002300D4
:103C9C000A3BED1821003000FCF72EFA002846D024
:103CAC000A34AC42F6D1284C284B1C609846236849
:103CBC001D682800FCF72AFA0200290030000EF0DB
:103CCC00B3FC002835D0646843461C60002CEED150
:103CDC00194B1B78002B1ED0174B0A3301341A7862
:103CEC00002A19D001340A330A2CF8D1013F1849A3
:103CFC007F000122A2407B5A13437B52002007E035
:103D0C00013F13497F000122A2407B5A13437B528F
:103D1C0004BC9046F0BD0024A00000194000064BE6
:103D2C00181831000EF078FCE0E70620F0E70720C9
:103D3C00EEE70820ECE7C0460C0E0020706A010884
:103D4C001C000020220F00209C000020A41000204A
:103D5C00700E0020F0B5CE46474680B583B0244B9C
:103D6C001B78002B3CD0012500230193214B994655
:103D7C00214B984621E00026012480273F0204E0D5
:103D8C000134E4B20136062C11D0200008F042FDBB
:103D9C00436BBB42F4D1174B1B78013B5B00424693
:103DAC009A5A390031410A4341465A52E8E70135E3
:103DBC00EDB20F4B1B78AB4214D34B461B78AB4286
:103DCC00D9D000221321280004F06AFD322008F01B
:103DDC008BFB0A4B1B78002BE9D002230193E6E7FF
:103DEC0000230193019803B00CBC90469946F0BD9A
:103DFC001C0000201C1000202C6D0020B010002096
:103E0C00F0B5C64600B500250124124B9846124F5A
:103E1C00802636020AE0200008F0FCFC012108F0A4
:103E2C008FFD0134E4B20135062C0FD03B78013BF9
:103E3C005B0042469B5A32002A411A42EBD12000C9
:103E4C0008F0E8FC002108F07BFDEAE7002004BC48
:103E5C009046F0BD2C6D00201C10002070B508F0B1
:103E6C00FBF908F099FA03F077F907F065FF06F013
:103E7C00F9FE08F0C5FA07F00BFF08F0F3FA07F0AB
:103E8C00FFFF00281AD1FFF78DF8002821D03E4BF8
:103E9C0001221A70322008F027FB06F087FC3B4BFE
:103EAC00E12252029A6001241D00A968200008F04A
:103EBC003DFD0134E4B2062CF7D10FE0FFF7C0F85A
:103ECC00BFF34F8F324B334ADA60BFF34F8FC0468C
:103EDC00FDE7322008F008FB06F068FCFFF750F80D
:103EEC00FFF78EFF07F01EFB2B4B1B78002B37D0F8
:103EFC0080252D019024E4050122290020000CF0DE
:103F0C0017F9FA20400008F0EFFA002229002000EF
:103F1C000CF00EF9642008F0E7FA012229002000C9
:103F2C000CF006F9642008F0DFFA002229002000CA
:103F3C000CF0FEF8642008F0D7FA012229002000CA
:103F4C000CF0F6F8642008F0CFFA002229002000CB
:103F5C000CF0EEF802F03CFF104B01221A7070BD11
:103F6C0080252D019024E4050122290020000CF06D
:103F7C00DFF8FA20400008F0B7FA002229002000F0
:103F8C000CF0D6F8E6E7C046760A00209C680020C4
:103F9C0000ED00E00400FA051C100020750A00205A
:103FAC0010B582B01E200DF0ABFE04001E220021C5
:103FBC000EF0FCF808498B7D0A7D013A9200074807
:103FCC001258088B0190497D0091054920000EF094
:103FDC00E7FA200002B010BD9C680020A86F010811
:103FEC00E06C010800B585B00A00074B1978012375
:103FFC000393023B02930193033300930B0004F0F1
:10400C0075FC05B000BDC0461C10002030B587B053
:10401C0004000D0000230493039302930193009377
:10402C00002200210020FEF70FFE621ED3009B1A17
:10403C00DB00144A9B58002B15D06A1ED3009B1A28
:10404C00DB00104A9B58002B04D1200002F034FEF8
:10405C00002006E0200002F02FFE280002F02CFECB
:10406C00002007B030BD6A1ED3009B1ADB00054A46
:10407C009B58002B04D0280002F01EFE0020F0E715
:10408C006820EEE76C18002070B505000478002C51
:10409C0010D0032604E02A7001352C78002C09D0AE
:1040AC000DF020FE0019437833402200012BF2D191
:1040BC002032F0E770BD0000F0B5C64600B588B000
:1040CC000500DC4B1C78052C00D110E2DA49A3006A
:1040DC001A199200002050541A1992008A18507024
:1040EC001819800002304018042200210EF05EF8EE
:1040FC002B78622B02D1AB782E2B32D0CF4E2900ED
:10410C0030000EF089FACE4C210030000FF004F98B
:10411C000500210000200FF0FFF806002100002010
:10412C000FF0FAF80400002D00D1E5E12800FEF7AD
:10413C00AFFF051E00D18FE1002E00D08EE167206D
:10414C00002C00D0D4E1BB4C2378BB499A00D0188A
:10415C008000023646540A18D570013323700020B3
:10416C00C6E16E78303EF6B20020052E00D9BFE1D4
:10417C00B14AA30019198900013088545318002240
:10418C005A709E70EF1C0732AE4938000EF04CFA94
:10419C00002821D1A3001C19A400A74B1C1905232E
:1041AC00E370F2009219A84B9B181B7ADB0704D51D
:1041BC00A04A1378013313709AE10123059300236D
:1041CC000493039302930193009300220121300086
:1041DC0003F0C0FE0020EBE70E229C4938000EF0E5
:1041EC0023FA00281CD1A3001C19A400924B1C1903
:1041FC000623E370F2009219934B9B181B7A9B07D2
:10420C00D6D40123059300230493039302930193C3
:10421C00009301220021300003F09CFE0020C7E730
:10422C000C228B4938000EF0FFF900287AD1F200ED
:10423C009219854B9B189B78002B30D0F200921969
:10424C00814B9B18DB78002B4AD0F20092197E4BE5
:10425C009B181B790C20002BAAD1774FA3001B199C
:10426C009B00FB180B22DA7028000F300DF005FDB7
:10427C00C0B2704B1A7893009B189B00FF183871D2
:10428C00012305930023049303930293019000935D
:10429C0000220021300003F05DFE002088E7664F0D
:1042AC00A3001B199B00FB180922DA7028000F30A1
:1042BC000DF0E3FCC3B25F4A11788A0052189200E9
:1042CC00BF183B71012205920022049203920292C4
:1042DC00019200920021300003F03CFE002067E7C1
:1042EC00554FA3001B199B00FB180A22DA702800FB
:1042FC000F300DF0C2FCC0B24E4B1A7893009B18D5
:10430C009B00FF183871012305930023049303933A
:10431C0002930193009000220021300003F01AFE5A
:10432C00002045E70D224B4938000EF07DF90300C3
:10433C000020002B00D03BE7F2009219424B9B1857
:10434C005B79002B31D0F20092193F4B9B189B7973
:10435C00002B4CD0F20092193B4B9B18DB790D20B3
:10436C00002B00D024E7344F143398465C433C199F
:10437C00063BE370280010300DF07FFCC0B22D4BD3
:10438C001B7842465343FF18387101230593049060
:10439C000024039402940194009423002200210031
:1043AC00300003F0D7FD200002E7234FA3001B19B8
:1043BC009B00FB180C22DA70280010300DF05DFC0D
:1043CC00C0B21C4B1A7893009B189B00FF183871D5
:1043DC00012305930023049303930290019300930C
:1043EC0000220021300003F0B5FD0020E0E6124F62
:1043FC00A3001B199B00FB180D22DA70280010304B
:10440C000DF03BFCC0B20B4B1A7893009B189B0031
:10441C00FF18387101230593002304930390029332
:10442C000193009300220021300003F093FD002043
:10443C00BEE6C046BB110020B86800202011002049
:10444C003C6B01084080010854140020AC71010839
:10445C00BC710108CC710108002E4FD0002C4FD03C
:10446C002000FEF715FE002824D0274B1C78274A85
:10447C00A3001919890004278F54191989005118A0
:10448C00CD70C871204D2C783000FEF70DFE1F4901
:10449C00A3001B199B00CB1858702A7893009B180B
:1044AC009B00CB185B78002B2CD00132164B1A706A
:1044BC0000201DE0144B98461A78144F930099185D
:1044CC0089000320C8557B18DD7020000DF0D0FB4F
:1044DC00FEF706F8079043461B789800C01880003A
:1044EC000630C019042207A90DF057FECAE70E20AA
:1044FC0008B004BC9046F0BD6720F9E76720F7E7E9
:10450C006720F5E76720F3E7BB110020B8680020AF
:10451C00F8B50C00022817D0032803D001280FD0BF
:10452C0000200CE0354B1A78013A93009B189B0045
:10453C00334AD31801221A7406F018F80020F8BD7B
:10454C000800FFF7B9FDFAE72C4B1D78013DAB00D5
:10455C005B199B002A4AD318DE68002E3DD0300030
:10456C00FBF7D4FD07002000FBF7D0FD3918023112
:10457C0030000DF04DFE224EAB005D19AD007519EB
:10458C00E8601E4D2A78013A93009B189B00F318A3
:10459C007A1CD868801821000EF03EF82A78013A6F
:1045AC0093009B189B00F618F3681322DA55134BF3
:1045BC001A78013A93009B189B001149CB18DB68C1
:1045CC000020002BBBD190008018800040181422D2
:1045DC0000210DF0EBFD0E20B1E70800FBF796FD76
:1045EC0001300DF08DFBAB005D19AD00044B5D1976
:1045FC00E86021000EF010F8D9E7C046BB1100208E
:10460C00B8680020F0B5DE4657464E464546E0B544
:10461C008BB00490884603921C000922002107A845
:10462C000DF0C4FDD54F2E0034E05222D4492000A9
:10463C000DF0B3FDD14B00221A7044E00622D14993
:10464C0003980DF0F1FF002853D0022D5ED02E21DF
:10465C0003980DF0D3FF051E06D003380322CA4978
:10466C000DF0E2FF002860D19922920021000398FE
:10467C0008F0B2FA06002378002B00D06FE120007E
:10468C00FBF744FD0200002120000DF08FFD002EF1
:10469C0000D1ABE10398FFF7F7FC3D78002DCDD1AD
:1046AC000322BA4903980DF0BFFF0028CFD1039B1A
:1046BC00D91C0130FFF72CFF0028B6D1AF4B0222DA
:1046CC001A700D2323702378002B00D186E143460A
:1046DC00002B00D19DE100262000FBF717FD82B2D4
:1046EC0001235B42009333332100049808F0B0F8A7
:1046FC00C5E7A24B00221A70A5490330FFF708FF4B
:10470C004122A44920000DF048FDDCE7039902206A
:10471C00FFF7FEFE002802D10D232370D3E75222AF
:10472C00974920000DF039FDCDE70DF0DBFA6B78E1
:10473C00C01843785B0797D403996A1A07A80DF041
:10474C0084FF07A8FFF7B2F90590934A12789346B5
:10475C0090423DD0642843D0662847D0FF284BD0E8
:10476C006B461B7D9A46FE2B78D0013506228B4971
:10477C0028000DF059FF002800D0B4E0884B00222F
:10478C009A711921504604F08BF8642008F08DF9C9
:10479C00844B1A78804B187800235146FEF760FE44
:1047AC007F4B9B79602B8ED1FA218900012009F077
:1047BC004FFD7D4B1B78002B85D07C4A1388013331
:1047CC001380059B22007A4920000DF0E9FE7AE760
:1047DC009922681C9200210008F0FEF906004AE7B5
:1047EC002722744920000DF0D8FC6CE72522724971
:1047FC0020000DF0D2FC66E7192200216F480DF065
:10480C00D5FC01350398FBF781FC060007AB1800BB
:10481C00FBF77CFC721E121A290069480DF015FF7B
:10482C000398FBF773FC060007A8FBF76FFC331A21
:10483C009BB21722FF21584604F00AF899229200E5
:10484C002100280008F0C8F906002000FBF75EFCE8
:10485C0020181D225B490DF0A0FC0CE7059B1B12D8
:10486C00DBB29A46584B994652461A7019220021CF
:10487C0052480DF09BFC6B1C05930398FBF746FC10
:10488C00050007AA1000FBF741FC013D2A1A059907
:10489C004B480DF0DAFE0398FBF738FC050007A82F
:1048AC00FBF734FC2B1A9BB217225146584603F0E7
:1048BC00CFFF394B1B78013B5B00444A9B5A4A465D
:1048CC0012781341DB0706D407AB220040492000C5
:1048DC000DF066FECFE6992292002100059808F0B3
:1048EC007BF90600F0E70398FBF710FC060007AB1A
:1048FC001800FBF70BFC721E121A290030480DF041
:10490C00A4FE0398FBF702FC050007A8FBF7FEFBCF
:10491C00013D2A1A92B21721504603F0C1FF059AA5
:10492C002C4920000DF03CFE2378002B02D043468E
:10493C00002B08D12000FBF7E9FB0200002120002E
:10494C000DF034FC2CE72000FBF7E0FB82B20123D6
:10495C00009331332100049807F07AFFEAE74346CD
:10496C00002B00D18BE6B7E601235B420093333377
:10497C0038221949049807F06BFF43E0E811002036
:10498C00E46F01083870010884700108E06F0108B9
:10499C00A46C0108407001081C100020247101084F
:1049AC009C680020770A0020B010002066160020BA
:1049BC005071010888700108B0700108D40C0020F7
:1049CC00E80E0020D8700108BA110020700E0020EB
:1049DC00F87001082C710108707101082000FBF7B8
:1049EC0095FB0200002120000DF0E0FB09220021C4
:1049FC0007A80DF0DBFB0B4B1B78002B02D14346B9
:104A0C00002BB1D10BB03CBC90469946A246AB46AC
:104A1C00F0BD2000FBF77AFB0200002120000DF016
:104A2C00C5FBE3E7E8110020F0B5DE4657464E46DD
:104A3C00C0B586B001214942012009F009FC0F23C1
:104A4C0002AA9446634400221A7008F043F90390BA
:104A5C00E1231B035F4A92689A420FD001245E4EF9
:104A6C001D0003E00134E4B2062C07D03378A342D6
:104A7C00F8D02900200007F059FFF3E7574B1A88AC
:104A8C0053009B185B00564A9B18564A1278564C9A
:104A9C00514D29780091554920000DF081FD287861
:104AAC000A23534A534907F0FBFE2000FBF72EFB69
:104ABC0082B228780A23210007F0F2FE00239B46DD
:104ACC00454B9A464C4B99461F00564661E00F20C9
:104ADC0002ADAC46604402709801484A121800209E
:104AEC005054454AD4540F2402AB9C4664443A4B70
:104AFC0018780A230122210007F0D2FE23780D2B0F
:104B0C0028D00A2B43D0082B59D01A00203A5E2A01
:104B1C003DD85A46312A3ADC394A594653545B46F9
:104B2C0001335BB29B4632E00022FA5409F076FE68
:104B3C003E3C3378013B21009A01AA18125D002AF1
:104B4C00C5D13F2CF0D009F069FE0134A4B23F2C42
:104B5C00EFD9C8E7204B18780A230222294907F01D
:104B6C009FFE5B46002B25D0254C1B4B1878039BD6
:104B7C0022000121FFF746FD210023480DF04CFDDA
:104B8C003222002120000DF011FB00239B4609F07E
:104B9C0045FE53461B78013B4A46D25C94B23F2CEF
:104BAC00A1D811009D0115484019825C002A8ED1B4
:104BBC00124DC6E7144912480DF02EFDD4E75B46A2
:104BCC00002BE4DD013B5BB29B460D4B00225946AA
:104BDC005A54DCE79C680020770A00205000002023
:104BEC00F46C01081C100020BC110020DC710108C1
:104BFC009302000008720108AC1300206C12002014
:104C0C00EC100020289401088811002070B50C00CD
:104C1C001C4B1A78013A93009B189B001A4AD31824
:104C2C00DB68002B2CD0194B1B68002B14D0174BB6
:104C3C001D682B78002B12D0132128000DF0DEFC00
:104C4C00061E11D0421B290020000DF0FEFC01367F
:104C5C000E4B1E60012006E00C4B1860E7E70B4B77
:104C6C0000221A60002070BD290020000DF0D4FC39
:104C7C002000FBF74BFA2D18044B1D600120F2E7C6
:104C8C000020F0E7BB110020B8680020E4110020E0
:104C9C00F0B583B0040083001B189B003F4A9B5C5B
:104CAC00012B03D0032B15D0002011E03B498300CE
:104CBC001A1892008A189078C20012181B199B00BF
:104CCC00CB183749505CDB78C01A43425841C0B20C
:104CDC0003B0F0BD314E85002B189B00F318DA7829
:104CEC00013A53009B189B002E4A9B581F682918A9
:104CFC00890006318919042201A80DF04EFA2D19EC
:104D0C00AD0075196B78062B3FD89B00264AD358FB
:104D1C009F46391C0198FBF7D5FB431E9841D7E7FA
:104D2C00391C0198FBF7D4FB431E9841D0E7391C82
:104D3C000198FBF7E1FB002829D00021381CFBF778
:104D4C00C1FB43425841C3E7391C0198FBF7CAFB2E
:104D5C00431E9841BCE7391C0198FBF7D7FB002890
:104D6C0017D00021381CFBF7ADFB43425841AFE78D
:104D7C00391C0198FBF7A6FB00280CD10021381C2C
:104D8C00FBF7A0FB43425841A2E70020A0E700201C
:104D9C009EE700209CE700209AE7C046B8680020F8
:104DAC005414002088000020C46F0108F8B507F0E7
:104DBC0091FF05001C4B1B78002B32D000241B4F9D
:104DCC001AE01B4B18782B001A4A0021FFF71AFC2B
:104DDC002800FBF79BF90200002128000DF0E6F9F2
:104DEC001449F068FFF712FF0028EAD10134A4B28D
:104DFC000D4B1B78A34214D9A3001B199B00FB1865
:104E0C001B7C002BF2D0E0B2FFF742FF0028EDD064
:104E1C00094B20229A71A3001E19B600034B9E1950
:104E2C00DEE70020F8BDC046BB110020B8680020AA
:104E3C00770A0020541100209C6800200020704745
:104E4C0070B582B004001500002301930093002874
:104E5C0001D172B6FEE701AA0121280007F03EFF3E
:104E6C000023C356702B0CD06A460221280007F091
:104E7C0035FF0CF008FF13220F4920000DF08DF9BF
:104E8C0016E001300CF0FFFE06006A4602212800F5
:104E9C0007F024FF0CF0F7FE0500F0B2290007F034
:104EAC0045FDFF2333402A00044920000DF078FB18
:104EBC00002002B070BDC046B87D0108907D01088D
:104ECC0010B5002801D172B6FEE7034B1A880349CE
:104EDC000DF066FB002010BDCCF7FF1F68770108B2
:104EEC00F0B5D646474680B585B0040010000023C7
:104EFC000393624B1A7802AB1A70002C01D172B674
:104F0C00FEE703AA012107F0E9FE05005C49FBF767
:104F1C00F3F8002800D077E05A4B1A785A4B9B18BC
:104F2C00013B1E780125574B9846EBB29A464346F7
:104F3C001B78534508D10135062DF6D1002005B05C
:104F4C000CBC90469A46F0BD0DF048F902AF387093
:104F5C00642300935A3B01223900504607F078FC39
:104F6C00504607F057FC03689B8C3A78DBB29A42A8
:104F7C0038D02A00454920000DF012FB2000FBF729
:104F8C00C5F882B23F4B1878642300935A3B21003A
:104F9C0007F05EFC54223E4920000DF0FEF8200084
:104FAC00FBF7B4F882B2374B1878642300935A3B62
:104FBC00210007F04DFC0136324B1B78013B9B0165
:104FCC00344AD3189B5D002BB5D192462D4F01204E
:104FDC0009F0A2FD3B78013B9B0153449B5D002BE8
:104FEC00F5D0A8E72A002C4920000DF0D9FA2000B2
:104FFC00FBF78CF882B2234B1878642300935A3B4E
:10500C00210007F025FCC5E70023EB56702B05D0DB
:10501C000F22224920000DF0C0F88FE7681C0CF01D
:10502C0032FE0500C7B27B1E042B20D80DF0D6F83B
:10503C0002AE307064230093323B01223100380001
:10504C0007F006FC380007F0E5FB03689B8C327810
:10505C00DBB29A4205D1EAB20F4920000DF0A0FA5A
:10506C006CE7EAB2094920000DF09AFA66E71B22B8
:10507C000B4920000DF091F860E7C046A8690108C3
:10508C00C46C0108770A0020AC130020E88E0108DC
:10509C00FC8E01086C120020CC8E0108508F010888
:1050AC00608F0108F0B583B0040015000023019354
:1050BC000093002801D172B6FEE701AA0121280055
:1050CC0007F00CFE0023C356702B0ED06A4602214B
:1050DC00280007F003FE0023C356702B1ED00F22AE
:1050EC001A4920000DF059F815E001300CF0CBFDF9
:1050FC000600C7B26A460221280007F0EFFD002324
:10510C00C356702B0ED067206728E8D0192210499F
:10511C0020000DF042F8002003B0F0BD01300CF07F
:10512C00B2FDDCE701300CF0AEFD0500C1B2380079
:10513C00FEF76CFF0028E7D1FF222B001340324012
:10514C00044920000DF02CFAE5E7C046508F010809
:10515C0018900108F88F0108F0B583B00400150011
:10516C00002301930093002801D172B6FEE701AA37
:10517C000121280007F0B2FD0023C356702B0ED07E
:10518C006A460221280007F0A9FD0023C356702BA4
:10519C001ED00F221A4920000CF0FFFF15E0013041
:1051AC000CF071FD0600C7B26A460221280007F018
:1051BC0095FD0023C356702B0ED067206728E8D0CE
:1051CC001722104920000CF0E8FF002003B0F0BDBE
:1051DC0001300CF058FDDCE701300CF054FD0500FB
:1051EC00C1B23800FEF7FEFE0028E7D1FF222B00EB
:1051FC0013403240044920000DF0D2F9E5E7C046D7
:10520C00508F010804760108E0750108F0B585B0EF
:10521C000500100000230393002D01D172B6FEE7A8
:10522C0003AA012107F05AFD0CF027FD0190C6B22C
:10523C00002E03D0274B1B78B34207D223222649DA
:10524C0028000CF0AAFF002005B0F0BD6B461A79BF
:10525C00013A22481423534300271F54C418677083
:10526C0002331818042239000CF0A0FF2774E068F0
:10527C000CF050FDE760174B1F78BE4213D26B4603
:10528C001979142214004C43144824187B1E9B1BC0
:10529C00DBB25B18534380181E182378002B0DD1FA
:1052AC001434B442F9D17B1E0A4A137005F05EF92E
:1052BC0036220B4928000CF070FFC4E714222100A1
:1052CC00200014380CF069FF1422002120000CF08F
:1052DC006DFFE5E7BB11002024770108B8680020BA
:1052EC00EC76010810B582B0040010000023019385
:1052FC00002C01D172B6FEE701AA012107F0EEFCE9
:10530C000CF0BBFCC3B2002B03D00E4A12789A42AD
:10531C0007D223220C4920000CF03FFF002002B0E2
:10532C0010BDC0B20138142343430848C0180023F1
:10533C00037405F01BF93522054920000CF02DFFF4
:10534C00ECE7C046BB11002024770108B8680020A8
:10535C00347B010810B582B00400100000230193C7
:10536C00002C01D172B6FEE701AA012107F0B6FCB0
:10537C000CF083FCC3B2002B03D00E4A12789A4275
:10538C0007D223220C4920000CF007FF002002B0AA
:10539C0010BDC0B20138142343430848C018012380
:1053AC00037405F0E3F83822054920000CF0F5FEF3
:1053BC00ECE7C046BB11002024770108B868002038
:1053CC00E8740108F0B5D6464F464646C0B58AB0DB
:1053DC00040006AA7A4B043323CB23C21B88138008
:1053EC00002C01D172B6FEE7764B187801235B4294
:1053FC00009333333722744907F02AFA734B1B7826
:10540C00002B00D1D0E00025714B9846BAE0704BD0
:10541C009946AB009A465B199B004B441A7CD3000F
:10542C009B1A06AA944663443A006A4920000DF080
:10543C00B7F853465B199B004A469B5C012B2DD059
:10544C00032B00D0A9E0A900491989000631604B53
:10545C0099464944042205A80CF09FFEAD00AD19F5
:10546C00AD004D44EA78013A53009B189B005A4A10
:10547C00D3189B6899460598FCF7E0FF02900391BE
:10548C006B78013B5A00D218544B9B1800934B4637
:10549C002200534920000DF083F87EE0AB005B192D
:1054AC009B004B4AD318DB78053BDAB2092A74D837
:1054BC0093004C4AD3589F4614236B43444AD2184A
:1054CC009378D26800922200474920000DF068F8CA
:1054DC0063E014236B433E4AD2189378D26800924F
:1054EC002200424920000DF05BF856E014236B4378
:1054FC00374AD2189378D168019112790092220020
:10550C003B4920000DF04CF847E014236B43304A24
:10551C00D2189378D1680191127900922200354902
:10552C0020000DF03DF838E0334B220033492000C9
:10553C000DF036F83048FAF7E9FD020000212E484C
:10554C000CF034FE2900F068FFF760FB0028EBD16B
:10555C002000FAF7DBFD20180C2229490CF01DFE67
:10556C002000FAF7D3FD82B2164B187801235B4268
:10557C0000933333210007F06BF93D00134B1B787C
:10558C00BB4211D96F1CFFB22E00AB005B199B0004
:10559C0042469B5C002B00D039E7174DB3009B199A
:1055AC009B000B4EF618CDE7A722164920000CF0F5
:1055BC00F4FD00200AB01CBC90469946A246F0BDF2
:1055CC00A8690108770A0020D87F0108BB110020C8
:1055DC00B86800201080010888000020F87A0108C3
:1055EC007C8001089C7401081C8001083080010833
:1055FC004880010860800108EC1100208C800108B3
:10560C0094800108A080010810B5041E01D172B667
:10561C00FEE709F095FA03041B0C1B4A94466344FD
:10562C00082B2AD89B00194AD3589F46184A194967
:10563C0020000CF0B5FF09F07DFA030B220016498F
:10564C0020000CF0ADFF002010BD144A11492000C1
:10565C000CF0A6FFEFE7124A0E4920000CF0A0FF59
:10566C00E9E7104A0B4920000CF09AFFE3E70E4AD9
:10567C00084920000CF094FFDDE70C4A0549200096
:10568C000CF08EFFD7E7C046C0FBFFFFC4740108C7
:10569C00F4790108007A01084C7A0108147A01089F
:1056AC00207A01082C7A0108387A0108447A01081A
:1056BC0070B5041E01D172B6FEE70E2211490CF032
:1056CC006CFD114B1B68114D2200290020000CF0C1
:1056DC0067FF0F4B1B682200290020000CF060FFB5
:1056EC000C4B1B682200290020000CF059FF2000F5
:1056FC00FAF70CFD2018032207490CF04EFD002090
:10570C0070BDC04644900108ACF7FF1F54900108CF
:10571C00B0F7FF1FB4F7FF1F2894010810B584B031
:10572C00041E01D172B6FEE706F036FE1B4B5B7B06
:10573C00182B04D00C2B0ED0002004B010BD174930
:10574C004B7C8A7CC8890190097C0091144920000B
:10575C000CF026FFF0E7114BDB7C012B0DD10F4930
:10576C004B7C8A7C0F480290C8890190097C00917F
:10577C000D4920000CF014FFDEE7022BDCD10749A9
:10578C004B7C8A7C09480290C8890190097C009165
:10579C00054920000CF004FFCEE7C0469C680020B1
:1057AC008C8F0108E08F0108B48F0108E48F010889
:1057BC0010B5041E01D172B6FEE706F0EDFDFEF742
:1057CC00EFFB0200024920000CF0EAFE002010BDA5
:1057DC002C760108F0B5C64600B582B00400160060
:1057EC00002301930093002801D172B6FEE701AAB1
:1057FC000121300007F072FA0500744B1860042286
:10580C0073490CF011FF002800D090E02F1D019B74
:10581C001E1F32006F4938000CF006FF00281ED105
:10582C006D4B9B79602B09D16C4A6D4920000CF0B3
:10583C00B7FE002002B004BC9046F0BD202B05D171
:10584C00684A674920000CF0ABFEF2E7002B00D051
:10585C00B6E0654A624920000CF0A2FEE9E732008E
:10586C00624938000CF0E0FE00281AD15A4BDB7963
:10587C00032B05D1594A5A4920000CF091FED8E768
:10588C00012B05D1574A564920000CF089FED0E770
:10589C00002B00D094E0544A514920000CF080FEBB
:1058AC00C7E73200524938000CF0BEFE002806D182
:1058BC00494B9A684F4920000CF072FEB9E7320050
:1058CC004D4938000CF0B0FE002806D1424B1A8826
:1058DC00484920000CF064FEABE732004749380021
:1058EC000CF0A2FE002806D13B4B5A8841492000FF
:1058FC000CF056FE9DE73200414938000CF094FE46
:10590C00002806D1344B1A793A4920000CF048FE95
:10591C008FE732003B4938000CF086FE00280DD191
:10592C002D4B5A79334920000CF03AFE81E70522C1
:10593C00354928000CF078FE002805D01322334995
:10594C0020000CF02AFC74E76A460221300007F0B4
:10595C00C5F905002E4F002639002800FAF7CCFBBC
:10596C00002811D00136F6B20A370A2EF4D12A00DB
:10597C00284920000CF014FE5BE72B00220026497E
:10598C0020000CF00DFE15E02A00244920000CF03C
:10599C0007FE234B1B78002B00D14AE701252B0077
:1059AC00B34098461F4F1E4E6B1E5B00DB5B42469E
:1059BC001A42E2D10135EDB23378AB42F4D238E77A
:1059CC002A00194920000CF0EBFD32E730120020C0
:1059DC0098770108A07701089C680020C46C010826
:1059EC001C6B0108AC770108B0770108B877010887
:1059FC00C077010848710108CC770108D8770108F5
:105A0C00E8770108FC770108107801082078010874
:105A1C000C0E002034780108187801085078010821
:105A2C001C000020700E00206478010870B582B054
:105A3C000400100000230193002C01D172B6FEE784
:105A4C0001AA012107F04AF90500019E32001E4906
:105A5C000CF0EAFD00281ED032001C4928000CF086
:105A6C00E3FD00282AD100221621FF2002F018FFA6
:105A7C00174B02221A70642007F017F8FCF712FF7C
:105A8C0004F07CFE642007F010F84022114920003D
:105A9C000CF083FB0FE01049104B0A0023CB23C200
:105AAC0023CB23C21B681360FDF7BCF927220C49DA
:105ABC0020000CF072FB002002B070BD0F220949CF
:105ACC0020000CF06AFBF6E7547601088476010896
