:020000040800F2
:1000000000800020FDE8000889E90008C9DE00083A
:1000100000000000000000000000000000000000E0
:1000200000000000000000000000000011070108AF
:100030000000000000000000C9070108BDDE000844
:1000400089E9000889E9000889E9000889E90008C8
:1000500089E9000889E9000889E9000889E90008B8
:1000600089E9000889E9000811DF000851DF00086C
:10007000B5DF000889E9000889E9000889E9000876
:1000800089E9000889E9000889E9000889E9000888
:1000900089E9000889E9000889E9000889E9000878
:1000A00089E9000889E9000889E90008CDDE00082F
:0C00B000DDDE0008EDDE000889E9000834
:1000BC0010B5064C2378002B07D1054B002B02D032
:1000CC00044800E000BF0123237010BD680A002023
:1000DC0000000000A8920108044B10B5002B03D0BF
:1000EC000349044800E000BF10BDC04600000000FA
:1000FC006C0A0020A892010802780B78002A03D021
:10010C00013001319A42F7D0D01A70470023C25CFB
:10011C000133002AFBD1581E7047000002B471460F
:10012C0049084900095C49008E4402BC7047C0462E
:10013C0003B47146490840004900095E49008E44E9
:10014C0003BC7047002243088B4274D303098B42D3
:10015C005FD3030A8B4244D3030B8B4228D3030C8B
:10016C008B420DD3FF22090212BA030C8B4202D32D
:10017C001212090265D0030B8B4219D300E0090A55
:10018C00C30B8B4201D3CB03C01A5241830B8B425E
:10019C0001D38B03C01A5241430B8B4201D34B0347
:1001AC00C01A5241030B8B4201D30B03C01A5241AC
:1001BC00C30A8B4201D3CB02C01A5241830A8B4231
:1001CC0001D38B02C01A5241430A8B4201D34B021A
:1001DC00C01A5241030A8B4201D30B02C01A52417E
:1001EC00CDD2C3098B4201D3CB01C01A5241830932
:1001FC008B4201D38B01C01A524143098B4201D36C
:10020C004B01C01A524103098B4201D30B01C01A96
:10021C005241C3088B4201D3CB00C01A5241830810
:10022C008B4201D38B00C01A524143088B4201D33D
:10023C004B00C01A5241411A00D20146524110469D
:10024C007047FFE701B5002000F0F0F802BDC04692
:10025C000029F7D076E7704703460B437FD4002282
:10026C0043088B4274D303098B425FD3030A8B423E
:10027C0044D3030B8B4228D3030C8B420DD3FF22A8
:10028C00090212BA030C8B4202D31212090265D076
:10029C00030B8B4219D300E0090AC30B8B4201D329
:1002AC00CB03C01A5241830B8B4201D38B03C01A70
:1002BC005241430B8B4201D34B03C01A5241030BE7
:1002CC008B4201D30B03C01A5241C30A8B4201D398
:1002DC00CB02C01A5241830A8B4201D38B02C01A43
:1002EC005241430A8B4201D34B02C01A5241030ABA
:1002FC008B4201D30B02C01A5241CDD2C3098B429F
:10030C0001D3CB01C01A524183098B4201D38B011B
:10031C00C01A524143098B4201D34B01C01A5241BE
:10032C0003098B4201D30B01C01A5241C3088B4203
:10033C0001D3CB00C01A524183088B4201D38B00EE
:10034C00C01A524143088B4201D34B00C01A524190
:10035C00411A00D201465241104670475DE0CA0F67
:10036C0000D04942031000D34042534000229C4627
:10037C0003098B422DD3030A8B4212D3FC22890131
:10038C0012BA030A8B420CD3890192118B4208D307
:10039C00890192118B4204D389013AD0921100E069
:1003AC008909C3098B4201D3CB01C01A524183097D
:1003BC008B4201D38B01C01A524143098B4201D3AA
:1003CC004B01C01A524103098B4201D30B01C01AD5
:1003DC005241C3088B4201D3CB00C01A524183084F
:1003EC008B4201D38B00C01A5241D9D243088B42A5
:1003FC0001D34B00C01A5241411A00D20146634648
:10040C0052415B10104601D34042002B00D54942AB
:10041C00704763465B1000D3404201B5002000F0EA
:10042C0005F802BD0029F8D016E770477047C046A2
:10043C008446101C62468C46191C634600E0C0467C
:10044C001FB501F0BFFD002801D40021C8421FBD1B
:10045C0010B501F017FD4042013010BD10B501F090
:10046C00B1FD002801DB002010BD012010BDC046ED
:10047C0010B501F0A7FD002801DD002010BD012002
:10048C0010BDC04610B501F039FD002801DC00207C
:10049C0010BD012010BDC04610B501F02FFD002885
:1004AC0001DA002010BD012010BDC0468446081C96
:1004BC006146FFE71FB500F021FB002801D40021A5
:1004CC00C8421FBD10B500F0A3FA4042013010BD68
:1004DC0010B500F013FB002801DB002010BD01203B
:1004EC0010BDC04610B500F009FB002801DD00204E
:1004FC0010BD012010BDC04610B500F0B1FA0028A7
:10050C0001DC002010BD012010BDC04610B500F06C
:10051C00A7FA002801DA002010BD012010BDC0464A
:10052C00002B11D1002A0FD1002900D1002802D0B4
:10053C000021C943081C07B4024802A140180290CC
:10054C0003BDC046E9FEFFFF03B4684601B502983F
:10055C0000F08AF8019B9E4602B00CBC7047C04666
:10056C00F0B5CE46474615042D0C2E0080B5070479
:10057C00140C3F0C9946030C7E435D436743634365
:10058C007F19340CE4199C46A54203D980235B02E5
:10059C009846C4444B4643435143250C36046544AA
:1005AC00360C2404A4195B19591820000CBC904675
:1005BC009946F0BD9E2110B5C905041CFFF7A6FF96
:1005CC00002803D1201C00F0DFFD10BD9E21201C53
:1005DC00C90500F015FC00F0D7FD80231B069C46D6
:1005EC006044F2E770B500220C4B04000D00FFF7DD
:1005FC0053FF002804D12000290002F021FB70BD1C
:10060C00064B00222000290001F0B6FF02F018FB77
:10061C0080231B069C466044F1E7C0460000E04185
:10062C000F4BD0B50400994206D9430504D0802362
:10063C00C40AE4021B011C43080002F071FB0022F7
:10064C00084B01F027FD06000F00200002F068FBAC
:10065C0032003B0000F0F8FD02F0E6FBD0BDC046D6
:10066C00FFFF1F000000F041F0B54F464646D6464E
:10067C00C0B5040082B00D00914698468B422FD82D
:10068C002CD04146484602F071FC2900060020009F
:10069C0002F06CFC331A9C46203B9A4600D576E05F
:1006AC004B46524693401F004B46624693401E00F9
:1006BC00AF4228D825D05346A41BBD41002B00DAED
:1006CC007BE00022002300920193012352469340C9
:1006DC000193012362469340009318E08242D0D9E3
:1006EC0000220023009201930A9B002B01D01C6076
:1006FC005D600098019902B01CBC90469946A246D8
:10070C00F0BDA342D7D90022002300920193634687
:10071C00002BE9D0FB079846414672080A437B0838
:10072C0066460EE0AB4201D1A2420CD8A41A9D4100
:10073C00012024196D410021013E24184D41002E49
:10074C0006D0AB42EED9013E24196D41002EF8D1F2
:10075C0000980199534600196941002B23DB2B00AB
:10076C005246D3402A006446E2401C005346150012
:10077C00002B2DDB26005746BE4033002600674673
:10078C00BE403200801A994100900191ACE762465C
:10079C0020239B1A4A46DA406146130042468A409F
:1007AC0017001F4380E7624620239B1A2A006646E7
:1007BC009A402300F3401343D4E7624620230021E0
:1007CC009B1A0022009101920122DA40019280E7EB
:1007DC002023624626009B1ADE402F00B046664658
:1007EC00B74046463B003343C8E7C046F8B55746CA
:1007FC004E464546DE464402E0B546008846640A4D
:10080C00360EC70F002E63D0FF2E24D08023E400B9
:10081C00DB041C43002399469B467F3E43464246DD
:10082C005D02D20F5B006D0A1B0E9046924665D09E
:10083C00FF2B55D080220021ED00D2047F3B1543C5
:10084C00F61A43464A467B400F2A00D98DE06D4884
:10085C00920082589746002C54D108239946063BA7
:10086C00FF269B46DAE70025534602291BD00329B5
:10087C0000D1BFE0012928D030007F30002820DDD6
:10088C006A0704D00F222A40042A00D004352A011A
:10089C0003D530005C4A80301540FE2803DCAC01E7
:1008AC00640AC2B201E0FF2200246402D205600A8D
:1008BC00DB07104318433CBC90469946A246AB4616
:1008CC00F8BD0122101A1B287CDD00220024ECE765
:1008DC00002C1DD104239946033B00269B469DE723
:1008EC00FF3E002D20D1022143464A467B400A435D
:1008FC000F2AD8D84548920082589746002D19D116
:10090C000121F1E70C239946093BFF269B4685E71D
:10091C00200002F00DFB7626431F9C4000237642FC
:10092C00361A99469B4679E74A4603231A43914661
:10093C00032186E7280002F0FBFA431F36189D407E
:10094C00763600217DE780240023E403FF22ACE708
:10095C0000258023DB031C4228D01D4226D12B43CB
:10096C005C02640A4346FF229FE762016C01A242CB
:10097C0024D21B210025013E012710006D005200DE
:10098C00002801DB944201D8121B3D430139002998
:10099C00F3D11400621E944125436DE7BA465946C3
:1009AC0025005346022900D061E77CE78023DB0356
:1009BC001C436402640A3B00FF2276E7121B1A21D7
:1009CC000125D9E79E362A00B5402C00C240651E91
:1009DC00AC411443620704D00F222240042A00D0F9
:1009EC000434620103D4A401640A00225DE70122ED
:1009FC0000245AE78024E4032C436402640AFF2297
:100A0C0053E7C046F4920108FFFFFFF73493010847
:100A1C0070B542004E024C0045026D0A120EC30F17
:100A2C00760A240EC90FFF2A0FD0FF2C11D00120FB
:100A3C00A24200D070BDB542FCD18B420DD0002A31
:100A4C00F8D12800451EA841F4E70120002DF1D172
:100A5C00EBE70120002EEDD1E9E70020EAE7C046E4
:100A6C0070B54A004E02450244006D0A240EC30FB5
:100A7C00760A120EC90FFF2C15D0FF2A0ED0002CAF
:100A8C0015D1002A01D1002E1CD0002D14D08B4280
:100A9C0027D00220013B1840013870BD002EEED04B
:100AAC0002204042F9E7002DFAD1FF2A0ED0002A8D
:100ABC000ED1002EEDD00BE0012301399943080033
:100ACC000130EAE70020002DE7D0E2E7002EE7D165
:100ADC008B42DED1944205DD0221581E08400138BC
:100AEC00DBE70024A24204DCB542D2D80020B54298
:100AFC00D3D2581E012398430130CEE730B54200C3
:100B0C0044024D02C30F4800640A120E6D0A000E17
:100B1C00C90FFF2A12D0FF280CD0002A12D10028AE
:100B2C0019D1002D17D1002C2BD00220013B1840DD
:100B3C00013826E0002DF0D0022022E0002CFBD161
:100B4C00FF281FD000281FD1002D1DD10220013BF2
:100B5C001840013815E0002C0ED08B42E5D1002254
:100B6C00904204DCAC42E0D80020AC4209D2581EC2
:100B7C0001239843013004E0012301399943080013
:100B8C00013030BD002DD7D18B42CED18242E7DD72
:100B9C000221581E08400138F3E7C046F0B54E4616
:100BAC0057464546DE46E0B543025B0A450083B036
:100BBC000F1C99462D0EC60F002D57D0FF2D24D09B
:100BCC008020DB00C0041843002381469A469B46D4
:100BDC007F3D7C027A00FB0F640A120E984623D0EC
:100BEC00FF2A4BD0E30080240020E4047F3A1C430E
:100BFC00AD186B1C47460193534677403A000F2BB8
:100C0C0048D87D499B00CB589F46002B00D085E0EF
:100C1C0008339A46063B9B467C027A00FB0FFF2565
:100C2C00640A120E9846DBD1002C00D090E052469C
:100C3C0001231A4392460120DBE74C465846170025
:100C4C00022824D0032800D1CFE000220023012861
:100C5C004DD15802D205400AFF071043384303B068
:100C6C003CBC90469946A246AB46F0BD002B5BD1EE
:100C7C0004239A46033B00259B46AAE7FF35002C2C
:100C8C0060D1524602231A4392460220B1E7FF225A
:100C9C000023DEE74B461B0C9C464B462604360CC9
:100CAC00180461463300220C6446000C43434E4347
:100CBC005043544380191A0C1218964203D98021C0
:100CCC0049028C4664441B041B0C1004C01883019D
:100CDC005E1EB341800E1843130C1B199B0103437A
:100CEC001C00230179D5012362081C401443019A8E
:100CFC007F32002A4DDD630704D00F232340042BE1
:100D0C0000D00434230103D53C4B019A1C408032A3
:100D1C00FE2ABCDCA3015B0AD2B29AE70C239A46EA
:100D2C00093BFF259B4654E7180002F001F94A469F
:100D3C00431F76259A4000236D4291462D1A9A4600
:100D4C009B4646E7524603231A439246032050E73C
:100D5C00200002F0EDF8431F2D1A9C40763D002038
:100D6C0047E780230027DB03FF2272E7424666E752
:100D7C004C463200584662E780234A46DB031A424F
:100D8C0022D01C4220D123435B025B0A4746FF2240
:100D9C005FE701239A1A1B2A21DC23000199D34017
:100DAC009E318C401A0023005C1EA34113435A074A
:100DBC0004D00F221A40042A00D004335A0111D453
:100DCC009B015B0A002244E780234A46DB03134362
:100DDC005B025B0A3700FF223BE7019587E70022A5
:100DEC00002336E70122002333E78023DB03234370
:100DFC005B025B0AFF222CE774930108FFFFFFF7ED
:100E0C00F8B54746CE464400C20F80B547024802AB
:100E1C00400A8446664648007F0A240EF6002500E8
:100E2C009046FB00000EC90FB146FF2800D185E0AB
:100E3C0001267140261A914257D0002E43DD00281E
:100E4C0000D07FE04946002900D1AAE0013E002EE7
:100E5C0000D0F7E05B1A5A0100D48BE09B019C098F
:100E6C00200002F065F805388440854200DDD3E0AF
:100E7C00451B230020200135EB40451BAC40621E76
:100E8C0094412343072400251C40012241460A407B
:100E9C00002C04D00F211940042900D0043359012F
:100EAC0000D480E00135ECB2FF2D00D0A3E0FF248C
:100EBC0000235B02E405580AD207204310430CBC04
:100ECC0090469946F8BD002E74D1601CC0B2012822
:100EDC0000DCA7E04A469C1A620100D5B6E0002C63
:100EEC00BED1002200240023E3E7002E00DC85E0C5
:100EFC00002846D0FF2C49D080224846D20410430B
:100F0C00814601221B2E09DC20204C46801B84408C
:100F1C004A462000F240441EA04102439B185A014D
:100F2C0028D50135FF2D00D1A8E0012207249449D2
:100F3C001A405B080B4013431C40A6E7002E00D060
:100F4C0078E775E7FF2C54D080224946D204114330
:100F5C00894601221B2E09DC20214846891B88402A
:100F6C004A460100F240481E81410A439B1A5A012D
:100F7C0000D573E7012241460A40590700D089E7A2
:100F8C0011E04846002858D1FF2C0CD1DB08002B6F
:100F9C0000D18CE78020C00303435B025B0AFF2473
:100FAC0087E7FF2C25D0DB08FF2DF0D05B025B0A16
:100FBC00ECB27EE7002C4DD0FF2818D08024E4043E
:100FCC00724223431B2A00DDC4E01C002025D440C0
:100FDC00AA1A93405A1E934123434A460500D31A3A
:100FEC00884638E7721CF8D0F243FF28EAD10A0091
:100FFC004B46FF25D7E79B015B0A5AE7002E41D1F0
:10100C00651CE9B2012945DDFF2D00D14FE707240E
:10101C004B445B081C4038E707225A4B2D1A2340DF
:10102C00144032E7002C1DD1002B7AD14B46002BFB
:10103C0000D191E00A000025B5E7013E002E19D140
:10104C004B446CE7FF2C84D1FF25ACE74A4688461D
:10105C00D41A05E7002BC5D10A00FF28C8D005001B
:10106C004B46A0E7002B49D14B46002B77D00A000A
:10107C00FF2598E7FF2C00D043E787E70A00FF2401
:10108C00002316E7002C15D1002B57D1FF28E6D1F1
:10109C004B467BE7002C20D1002B57D0494600292A
:1010AC0053D04B445A0168D50724364A1C400125BD
:1010BC001340EAE6FF28EBD08022D2047642134399
:1010CC001B2E53DC2025AD1B1A00AB40F2405C1EDE
:1010DC00A34113434B44050021E7002BD8D04946CC
:1010EC00002900D152E78021C9030F4200D14DE7FE
:1010FC006046084200D049E74B4647E74846FF2583
:10110C00002800D14FE78022D203174204D060465A
:10111C00104201D14B46884601224146FF250A4028
:10112C0041E7484600281FD01A1A500120D54A46DC
:10113C000724D31A1C4088460025A6E6741CC9D087
:10114C00F643FF28BCD14B4620E799464B46002579
:10115C00DB082BE7012340E700220023A9E68023CC
:10116C000022DB03FF24A4E600251CE70123B1E7E2
:10117C00002AF1D013000025FCE60025FAE6C04653
:10118C00FFFFFF7DFFFFFFFB41024200C30F490A37
:10119C00120E00207E2A0DD99D2A0CD88020000426
:1011AC000143952A0ADC9620821AD1404842002B32
:1011BC0000D108007047034A9818FBE7963A914013
:1011CC00F4E7C046FFFFFF7F70B5041E34D001F07A
:1011DC00AFFE9E22121A962A07DCD2B208282EDD08
:1011EC00083884406002400A21E0992A09DD030096
:1011FC0021001B3399404B1E994105231B1ADC40DF
:10120C000C43052801DD431F9C4023000D490B4076
:10121C00650709D00F252C40042C05D004335C0144
:10122C0002D59F220B40121A9B01580AD2B24002DF
:10123C00D205400A104370BD00220020F7E760027F
:10124C00400AF4E7FFFFFFFBF0B54F464646D64693
:10125C000C000903C0B5490A470F5E0039431F0350
:10126C00DB0F9C4665007B0A570F1F436D0DE40F87
:10127C00760DA146C000B846D200AB1B64457BD0AE
:10128C00002B5FDD002E00D0A4E03E00164300D101
:10129C0012E15E1E002E00D09EE1871A4346B84232
:1012AC0080410125C91A4042091A0B0200D431E1D0
:1012BC0049024E0A002E00D16EE1300001F038FEDA
:1012CC000300083B1F2B00DD61E120223900D21AFC
:1012DC009E40D1409F400E439D4200DD51E15D1B7D
:1012EC006B1C1F2B00DD7CE12021C91A3D00300056
:1012FC008F408840DD40791E8F4131000722284302
:10130C00D940002507433A40002A09D00F233B401F
:10131C00042B05D03B1DBB42BF417F42C9191F00A6
:10132C000B0200D426E26A1CC64B55056D0D9A4281
:10133C0000D106E1C44AFF080A40530752023B435E
:10134C00120B8EE0002B00D0B8E06B1C5B055B0D24
:10135C00012B00DC30E1871A4346B842B641CB1A68
:10136C0076429E1B330200D54CE13B003343A1D1A6
:10137C0000220024002570E0002B00DCE5E0002EAC
:10138C0000D183E0AF4EB54260D08026360437439F
:10139C00B846382B00DC3EE1434613431F007A1E4F
:1013AC0097413F1887428041404209180B0200D4F4
:1013BC00B0E0A44B01359D4200D1C3E0A24A7B08AA
:1013CC000A4001210F401F435108D30707221F4336
:1013DC003A4099E79B4EB54238D0802636043743C5
:1013EC00B846382B00DDDCE01F2B00DC30E11E00A2
:1013FC004746203EF740BC46202B04D04026F31A2B
:10140C0046469E403243170063467A1E97411F435F
:10141C00CCE0002B00D104E24346134300D159E148
:10142C004B07C00818438023C9081B03194208D076
:10143C004546ED081D4204D14346D00859070843E0
:10144C002900420FC9007F4D1143C0004B07CA0849
:10145C007C49C00803438D4268D012036D05120B02
:10146C006D0D002112031800130B0A0D12051A43FF
:10147C00764B2D0513402B435B00E4075B0823439D
:10148C0019001CBC90469946A246F0BD3E0016437E
:10149C0012D05E1E002E00D000E1871887428041DA
:1014AC0041444042091801250B0233D5022585E73A
:1014BC0064463300414610001D00C7E7002D00D0E4
:1014CC00DAE00C000443F3D05C1C00D19FE15D4CCE
:1014DC00A64200D12FE1DB43382B00DD66E11F2B48
:1014EC0000DD83E120240500E41A0F00DD40D94023
:1014FC00A0404346A7405B1A441EA04198462F4388
:10150C003843171ABA42924143465242991A6446DA
:10151C003500CAE607223A40002A00D0F6E64B070F
:10152C00CA084849FF083B438D4296D11900114324
:10153C0000D19EE1802109030A431203120B414D95
:10154C008FE71500002200238BE7002B00D0C7E0AB
:10155C006B1C5F057F0D012F00DCF1E0394DAB42B8
:10156C0000D1B9E085180A008542894142444942BC
:10157C0051180722CF076D082F4349083A401D0028
:10158C00C2E607223049ED1A31403A40BCE63E0033
:10159C002838864000279FE6380001F0C9FC20302F
:1015AC008EE6434613431F007A1E9741C71BB84271
:1015BC0080414042091A78E60E003B000643134373
:1015CC00002D61D1002E00D0F4E0002B00D11BE1E6
:1015DC0064463900100039E71A4FBB427AD0330009
:1015EC00FFE630001F3DE840202B03D04021CB1AF2
:1015FC009E4037437B1E9F41072207433A40002100
:10160C00002589E7171A4346BA42B641591A764261
:10161C008E1B64464EE61F2B00DDADE020264746B0
:10162C00F61AB740B9461700B246DF404E463E4365
:10163C0037005646B240561EB24117434246DA4076
:10164C008918AEE6FF070000FFFF7FFFFFFF0F804A
:10165C0020264746F61AB740B9461700B246DF4077
:10166C004E463E4337005646B240561EB2411743D3
:10167C004246DA40891A99E77F4CA6425BD0802417
:10168C0024045B42214327E7002E0CD1002B00D110
:10169C00CBE0644639001000774DD7E6764FBB425D
:1016AC0018D0330075E6002B14D04B07C008184334
:1016BC008023C9081B03194207D0FC081C4204D123
:1016CC007907D0080843E14621004C46420FC90077
:1016DC001143C000684DB9E61D0000220023C0E68E
:1016EC00002D5BD10D00054300D1E2E65D1C00D15D
:1016FC00B0E0614DAE421FD0DB43382B71DC1F2BA9
:10170C0000DD96E020250F00ED1AAF40B94607002A
:10171C00AA46DF404D463D432F005546A840D940D0
:10172C00451EA84188440743BF1897429241514235
:10173C00414435003AE6644635004146100085E6E2
:10174C000B000343002D00D063E6002BF5D043467D
:10175C00134300D17AE6871887428041072241441F
:10176C00404209183A400B0200D4D5E6434B0135F0
:10177C001940C9E5380069E61E004746203EF7408F
:10178C00BC46202B04D04026F31A46469E403243DA
:10179C00170063467A1E97411F4302E6364DAE4250
:1017AC00CAD080252D045B422943A6E70843411E7D
:1017BC008841A6E6002B00D148E6871A4346B8427A
:1017CC00B641CB1A76429E1B33024BD5171A4346B1
:1017DC00BA429241591A5242891A072264463A4037
:1017EC0092E501430F00791E8F419DE71C000F000D
:1017FC00203CE740202B03D04024E31A99400843B7
:10180C00411E884138437CE60022002425E6171A45
:10181C004346BA429241591A5242891A64463500DB
:10182C0043E541461000144D10E6802200241203BB
:10183C0080E61D000F00203DEF40BC46202B03D05E
:10184C004025EB1A9940084307006346781E8741F0
:10185C001F4369E7871897429B4141445B42C91873
:10186C003500A3E53B003343CED0072231003A408C
:10187C0052E600231A00F4E5FF070000FFFF7FFF8C
:10188C00F0B55746DE464E464546E0B58346070062
:10189C000E03480085B092461C00360B400DCD0F50
:1018AC00002800D19DE0954B984239D08023F6005A
:1018BC001B041E43924A7B0F334399469446030004
:1018CC006344009300230026FF00029323031B0BA9
:1018DC0098466300E40F52465B0D019400D1B3E0CF
:1018EC0086498B4200D19EE04246D10080221204F0
:1018FC000A435146490F11438B46814952468C4647
:10190C0000996344CB1A0021D20000932B00634052
:10191C009A460F2E00D905E17A4BB6009B599F468B
:10192C005B463343994600D0B8E0022308260027D3
:10193C0000900293CAE7CB463A0002990195019BAD
:10194C009A46022927D0032900D180E2012944D0EC
:10195C006D49009B8C4663441C00002C38DD5307FA
:10196C0000D013E2D2085B46DB0109D55946674B20
:10197C0019408B468021C9008C46009B63441C0097
:10198C00634B9C4207DC5B4664055F075B021743B5
:10199C001B0B620D02E000230027584A00211B0399
:1019AC001C0B0B0D1B05234314055A4A380013401E
:1019BC001C4353466400DB0764081C43210005B03C
:1019CC003CBC90469946A246AB46F0BD0122524221
:1019DC0001231B1B382B00DCADE100220023002768
:1019EC00DCE75B46334399465ED0002E00D18AE19A
:1019FC00300001F09DFA03000B3B1C2B00DD7BE15A
:101A0C001D22D31A5A460100DA4008398E401300C1
:101A1C005F46334399468F403F4B00261B1A009379
:101A2C000023029352E7414653460B433B499B46E6
:101A3C008C46009B634400935B46002B3BD10223F6
:101A4C0000221E43022161E7434613439B4637D0D5
:101A5C004346002B00D162E1404601F069FA0300D5
:101A6C000B3B1C2B00DD53E102004146083A914030
:101A7C0088461D21CB1A5146D9400B0041460B43D9
:101A8C009B46534693401A00009B25499C46604454
:101A9C0003008C4663440093002137E70323B146CF
:101AAC0000900C26029311E70023009301330426C7
:101ABC00002702930AE70323C3461E43032125E7AD
:101ACC0001331E430022012120E700239A46802384
:101ADC0000271B03094A61E7802349461B0319426F
:101AEC0000D1E2E05946194200D0DEE00B431B0363
:101AFC0017001B0BA246014A50E7C046FF07000027
:101B0C0001FCFFFFB4930108FF030000FFFFFFFE81
:101B1C00FE070000FFFF0F800DFCFFFF01F8FFFF29
:101B2C00F3030000D94500D9CBE000D1C6E03C005E
:101B3C0048460027009B013B00935B46160E1B0298
:101B4C001E431302984633041B0C9946310C019129
:101B5C00FEF77EFB4A4642430B04210C0500194359
:101B6C008A4207D98919013D8E4203D88A4201D98C
:101B7C00851E8919881A0199FEF76AFB09048C469F
:101B8C004A46210464464243090C030021438A421D
:101B9C0004D98919013B8E4200D8F1E02D041D4374
:101BAC00AB464346891A4246280C12041D0C5B4670
:101BBC00140C22001B041B0C5A4303946B43444328
:101BCC00029568431B19150CEB189C4203D9802411
:101BDC006402A44660441C0C15041B042D0C201834
:101BEC005D19814277D373D00C1AA24A7D1BAF4288
:101BFC00BF419446009B7F426344E01B1C0086421D
:101C0C0000D1DBE00199FEF723FB4A4642430B046B
:101C1C00290C070019438A4207D98919013F8E42C2
:101C2C0003D88A4201D9871E8919881A0199FEF7AF
:101C3C000FFB09044A46894629044D464243090CC8
:101C4C00030029438A4207D98919013B8E4203D8E4
:101C5C008A4201D9831E89193F04891A3A00039FCD
:101C6C001A43380013041B0C584381460298150C78
:101C7C006F43434345434846000C8446DB19634499
:101C8C009F4203D9802040028446654448461F0C7D
:101C9C0000041B04000C7D191818A94200D284E022
:101CAC0000D17FE001231A4357E680234A461B03E9
:101CBC0013431B031B0BAA466F4A6FE6BA4200D9AB
:101CCC0035E74B46DC0758087B081C43FF0734E715
:101CDC000024AF4289D247444745A4415B46644245
:101CEC00A4196418013BA6421ED2A0426DD800D1A3
:101CFC00B6E0241A9B4678E703005A46283B9A40E4
:101D0C000027914688E6584601F012F9203072E619
:101D1C0003005246283B9A4093460022B4E65046B4
:101D2C0001F006F920309AE6A642E2D1B845DCD99A
:101D3C00341A9B4659E71F2B65DC504C0099A4467E
:101D4C005C46614408008C4011008240D940501E12
:101D5C0082410C4314435A46DA401300620709D0FF
:101D6C000F222240042A05D02200141D94428941DE
:101D7C0049425B181A0262D50122002300270DE6A6
:101D8C008A4200D80AE7831E891907E70F231340FC
:101D9C00042B00D1E6E5171D9742924153429B4418
:101DAC00FA08E0E5002800D1D7E57118531EB142BE
:101DBC0027D3A94215D358D01A0073E7002B00DCA7
:101DCC0004E6012300229B44CDE50223474447450A
:101DDC0089415B429C46494289190C19E344241AF7
:101DEC0003E743465F0047459B41B8465B429E195B
:101DFC00023A8919A94200D054E7404500D051E776
:101E0C00ABE51A00F6E71F215F4649420C1BE74081
:101E1C00202B07D01A49009B8C46634418005B4664
:101E2C0083401A43501E82413A4307270023174030
:101E3C0009D00F21002311401400042995D1220050
:101E4C005F075B021B0BD20817430022A6E5802319
:101E5C0059461B030B431B0317001B0B064A9DE53E
:101E6C00BD42B2D89B460024BFE68045B9D31A00C8
:101E7C00C3E7C046FF030000FF0700001E0400007C
:101E8C003E040000F0B54F464646D6468446C0B5E3
:101E9C008046194E18030F034D00000B5C00824660
:101EAC003F0B6D0DC90F9146640DDB0F0120B54240
:101EBC000AD0B44203D0A54201D157450CD01CBC6A
:101ECC0090469946A246F0BD66463E43F7D1AC42D9
:101EDC00F5D154461443F2D10120C845EFD19942B3
:101EEC0007D0002DEBD163461F433800471EB84185
:101EFC00E5E70020E3E7C046FF070000F0B54F46DA
:101F0C004646D6464D00C0B50E03C90F8A462C492D
:101F1C001F035C008046360B6D0D91463F0B640D24
:101F2C00DB0F8D421ED08C4216D0002D1ED13043BB
:101F3C008446002C01D13A4323D06246002A1AD0A1
:101F4C009A4529D0514602200139084001381CBC61
:101F5C0090469946A246F0BD39001143E5D00220C7
:101F6C004042F4E73043FAD1AC420FD0002C0FD1F1
:101F7C003A43E7D00CE00122013B934318000130B7
:101F8C00E5E763460020002BE1D0DBE73A43E6D1DE
:101F9C009A45D7D1A542D5DCA54205DBBE42D1D8A6
:101FAC0008D00020BE42D2D25046012301389843BB
:101FBC000130CCE7C845C5D80020C845F4D3C6E7E6
:101FCC00FF070000F0B54F464646D6464D00C0B55B
:101FDC000E03C90F8A462E491F035C008046360B40
:101FEC006D0D91463F0B640DDB0F8D4218D08C426A
:101FFC0011D0002D18D130438446002C1ED13A4309
:10200C001CD163460020002B30D0514602200139F0
:10201C00084001382AE039001143EAD0022025E0BB
:10202C003043FBD1AC4226D0002C26D13A4324D1EC
:10203C005146022001390840013817E06246002A57
:10204C000FD09A45E1D1A54205DBBE42DDD819D0AF
:10205C000020BE420AD25046012301389843013079
:10206C0004E00122013B9343180001301CBC904654
:10207C009946A246F0BD3A43D0D19A45C5D1A54266
:10208C00C3DCE0E7C845C0D80020C845E3D3EDE782
:10209C00FF070000F0B55746DE464E464546E0B514
:1020AC00834606000F03480087B092461D003F0B85
:1020BC00400DCC0F002800D16FE0DE4B984238D099
:1020CC008023FF001B041F43730F3B430193DA4B28
:1020DC000027994600239B46F60081442B03690098
:1020EC001B0B52469846490DED0F002900D185E097
:1020FC00D04B994200D173E04346DA0080231B0495
:10210C0013435246CC48520F844613435246002088
:10211C006144D20089442100694000918C46012120
:10212C0049448A460F2F00D990E0C449BF00CF59CB
:10213C00BF465B463B43019300D06AE1022308276C
:10214C00002681469B46C9E732005846019B6146F2
:10215C000091022800D175E0032800D1FEE101288E
:10216C0000D02CE100230027002600253F032A0D78
:10217C003F0BB34812053A4302401B051343009A28
:10218C005B00D1075B080B433000190007B03CBC67
:10219C0090469946A246AB46F0BD5B463B43019345
:1021AC0000D12FE1002F00D1A5E1380000F0C0FED6
:1021BC0003000B3B1C2B00DD96E11D22D31A5A4663
:1021CC000100DA405E4608398F4013008E403B43D5
:1021DC0001939C4B00271B1A994600239B467DE7D5
:1021EC00414653460B4393498C46E144002B00D0A7
:1021FC001AE102220220174300228CE7134300D17C
:10220C000DE14346002B00D181E1404600F090FEE9
:10221C0002000B3A1C2A00DD72E10100434608392A
:10222C008B4098461D239A1A5346D3401A004346B6
:10223C00134352468A404946081A824989468144CA
:10224C00002068E77B4B002700268EE7140C120455
:10225C00120C1100370C3604350C794328008C46CF
:10226C002E0060436044834656432100300C804668
:10227C005846794340440291844506D988468021CA
:10228C0049028C46E044414602913604010C360C5E
:10229C0000048B4681191E0C1B041B0C03911900A6
:1022AC0079438C46280075436544A8465843050C71
:1022BC0045447743A94203D9802149028C4667449F
:1022CC00290C8C4639000004000C2D042D18614497
:1022DC00AB4405915946049101990F043F0C080C2D
:1022EC00390051434243904602008C46090C8B4600
:1022FC0062437C4344445C44A04503D98021490299
:10230C0088464244210C884661460904090C8C46D7
:10231C0039005943434370437E430F0CF618240491
:10232C00BE19644442448C46B34203D980235B02F9
:10233C0098464044029B61469846049B37044344AC
:10234C009B46AB45AD416B420D0405992D0C8C465B
:10235C007F196744FD18A8465D462D19A542A44176
:10236C0093466442A446C344DC448F42BF41984523
:10237C009B4193459241A445A4415B427F421F433C
:10238C00360C52426442BF192243BF1862463818B9
:10239C004302D20D039913436A020A43501E824131
:1023AC006146ED0D2A434E023243D90100D4B3E00D
:1023BC000126500832400243DE0732435B08224CB0
:1023CC005444002C62DD510709D00F201040042822
:1023DC0005D0101D9042924152429B180200D90127
:1023EC0004D580241948E40003405444184884421E
:1023FC0000DD27E75E075B02D2081F0B630516435F
:10240C005B0DB2E6002399460133042700269B4658
:10241C0064E60323019781460C279B465EE6012266
:10242C0001201743002276E6032303201F43434673
:10243C0071E6C046FF07000001FCFFFFF4930108A2
:10244C00FFFF0F800DFCFFFFFF030000FFFFFFFEEF
:10245C00FE0700000023802700933F030026434B18
:10246C0083E6019B3200A446584670E6AC466EE605
:10247C00802701993F0339422DD03B422BD11F437A
:10248C003F033F0B00951600384B6EE601252D1BC4
:10249C00382D00DD66E61F2D40DC35481C0050440D
:1024AC00160082408440EE40501E82413443144357
:1024BC00EB40620709D00F222240042A05D02200EB
:1024CC00141D9442804140421B181A023ED5012330
:1024DC000027002649E68027019B3F031F433F034B
:1024EC003F0B0094214B40E603005A46283B9A4090
:1024FC00002601926DE6584600F01AFD203057E692
:10250C0003005246283B9A401300002293E65046A3
:10251C0000F00EFD20307BE6CA4650E71F201E005F
:10252C004042041BE640202D03D0124C5444A340DF
:10253C001A43501E8241324307260027164009D009
:10254C000F200023104014000428B9D122005E078C
:10255C005B021F0BD2081643002306E680273F03BD
:10256C001F433F033F0B1600004BFEE5FF07000027
:10257C001E0400003E040000F8B557464E46454682
:10258C00DE460C000903E0B5490A460F5F003143F3
:10259C001E03DB0F760A9B46530F3343C84E650070
:1025AC00C000E40FD2006D0DA24681467F0D9C4603
:1025BC009046B74200D1B9E05B46012673409B467A
:1025CC00EE1BA34500D183E0002E63DD002F00D06D
:1025DC00B1E06346134300D123E1731E002B00D0FE
:1025EC00BAE1861A6346B04280410125C91A4042BD
:1025FC00091A0B0200D447E149024B0A984643469C
:10260C00002B00D189E1404600F092FC0300083B0E
:10261C001F2B00DD7CE120223000D21A4146D04035
:10262C00994002009E400A439D4200DD6AE15D1B19
:10263C006B1C1F2B00DD94E1202110003500C91A02
:10264C008E40DA408840DD40711E8E411100072219
:10265C002843002506433240002A09D00F2333407B
:10266C00042B05D0331DB342B641764289191E00A6
:10267C000B0200D43DE26A1C914B55056D0D9A423C
:10268C0000D119E18F4AF6080A4057075202374326
:10269C00120B9BE0002E00D0C5E06E1C7605760D6B
:1026AC00012E00DC48E16746861ACB1BB042BF41C5
:1026BC007F42B8461F004346FF1A3B00B8461B0238
:1026CC0000D55FE137439AD100220024002579E040
:1026DC00002E00DCFAE0002F00D18DE0784B9D42FB
:1026EC0067D0802367461B041F43BC46382E00DC92
:1026FC0052E1634613435A1E93411E188642804191
:10270C00404209180B0200D4BEE06D4B01359D42CE
:10271C0000D1D2E06B4A73080A4001210E401E43DF
:10272C005108D30707221E43324095E71E0016437B
:10273C0000D045E740E7624B9D423AD08023674684
:10274C001B041F43BC46382E00DDEBE01F2E00DCC3
:10275C003AE133006746203BDF403B00202E05D09A
:10276C004027BF1B6646BE40324390464646721E0B
:10277C0096413343DAE0002B00D114E26346134355
:10278C0000D168E180234E07C008C9081B0306432B
:10279C00194208D06046C008184204D163460100B3
:1027AC00D2085E071643F3009946C900720F444DD8
:1027BC0011434B46DE08424B4F073743CA089D4234
:1027CC0000D16EE012036D05120B6D0D002112038A
:1027DC00130B0A0D12051A433B4B2D0513402B43CB
:1027EC005B00E4075B082343380019003CBC9046AF
:1027FC009946A246AB46F8BD6346134311D0731EEF
:10280C00002B00D007E1861886428041614440428B
:10281C00091801250B0237D502257BE73E006146DE
:10282C0091463500C5E75C46002D00D0E1E00B0079
:10283C000343F3D0731C00D1ACE1214B9F4200D178
:10284C003AE1F343382B00DD6FE11F2B00DD8CE107
:10285C0020250E00ED1AAE40B0460600AA46DE401A
:10286C00454635432E005546D940A8406346451E83
:10287C00A8415B1A9C463043161AB24292416346F9
:10288C005242991A3D00B4E607223240002A00D089
:10289C00E4E60B4BF6084F073743CA089D4200D0BD
:1028AC0090E73B00134300D1A6E180231B031A439E
:1028BC001203120B024D89E715000022002785E751
:1028CC00FF070000FFFF7FFFFFFF0F80002E00D0EF
:1028DC00C7E06B1C5E05760D012E00DCF0E0C84DE8
:1028EC00AB4200D1B9E085180A00854289416244A7
:1028FC00494251180722CE076D082E434908324031
:10290C001D00A9E6BF49ED1A114007223240A3E68B
:10291C00320028388240002686E6300000F008FBA2
:10292C00203073E6634613435A1E9341C61AB042D5
:10293C0080414042091A5CE60E0067460643174385
:10294C00002D5ED1002E00D0F3E0002F00D11EE14F
:10295C005C46614691462CE7A94FBE427BD01E00D7
:10296C00F1E610001F3DE840202B03D04021CB1A8C
:10297C009A401643731E9E410722064332400021A3
:10298C00002583E7161A6346B2428041591A404229
:10299C000B1A98465C4632E61F2E00DDABE0202772
:1029AC00BB1B9A4663465746BB40994613004F469D
:1029BC00F3401F433B005746BA40571EBA411343DE
:1029CC006246F240891898E62027BB1B9A4663465C
:1029DC005746BB40994613004F46F3401F433B00FC
:1029EC005746BA40571EBA4113436246F240891A01
:1029FC009CE7834B9F425FD080252D047342294373
:102A0C0020E7002E0CD1002F00D1D0E05C466146AF
:102A1C0091467B4DCDE67A4FBE421CD01E0065E63A
:102A2C00002F18D0C0084E0706438020C9080003A9
:102A3C00014208D06346DC08044204D12100DA4686
:102A4C00D2085E071643F300994601245346C90089
:102A5C00720F11431C406A4DABE61D00002200278B
:102A6C00B4E6002D59D10B00034300D1D6E6731CFC
:102A7C0000D1B2E0624B9F421ED0F343382B6FDC87
:102A8C001F2B00DD97E020250E00ED1AAE40B0465E
:102A9C000600AA46DE40454635432E005546A84062
:102AAC00D940451EA8418C440643B6189642924123
:102ABC00514261443D0025E63D006146914678E671
:102ACC000B000343002D00D055E6002BF5D06346D8
:102ADC00134300D16DE68618864280416144404222
:102AEC00091800220B0200D4D0E6464B01351940E0
:102AFC00B2E5B1465DE633006746203BDF403B0064
:102B0C00202E05D04027BF1B6646BE403243904660
:102B1C004646721E96413343EFE5394B9F42CBD06C
:102B2C0080252D0473422943A8E70843411E8841A0
:102B3C00A2E6002F00D13CE66346861ACF1AB042BB
:102B4C009B415B42FB1A98461B024ED5161A6346F4
:102B5C00B2429241591A5242891A5C4600227BE5D4
:102B6C0001430E00711E8E419FE71D000E00203D9B
:102B7C00EE40B046202B04D04025EB1A9940084378
:102B8C00814648464346411E8841184374E600225C
:102B9C00002417E6161A6346B2429241591A524261
:102BAC00891A3D0025E561469146154D01E68022C6
:102BBC000024120379E61D000E00203DEE40B046C5
:102BCC00202B04D04025EB1A9940084381464E46F1
:102BDC004346711E8E411E4367E7861896429B4101
:102BEC0061445B42C9183D008CE547463743CED063
:102BFC0007224146324049E600273A00E6E5C04646
:102C0C00FF070000FFFF7FFF70B50C4E0D031C0388
:102C1C0049005B002D0B490D240B5B0DB14208D014
:102C2C00064900208B4203D114432000441EA041CE
:102C3C0070BD05430120002DFAD1F1E7FF0700001C
:102C4C0030B5144D0A034B00120B5B0DC90F002459
:102C5C00AB4211DD104CA34210DC802464032243F0
:102C6C000E4CE41A1F2C0CDD0D48C31ADA4013006D
:102C7C005C42002900D11C00200030BD094BCC184F
:102C8C00FAE7094DE040AC4663449A401300034315
:102C9C00EEE7C046FE0300001D04000033040000F4
:102CAC0013040000FFFFFF7FEDFBFFFF70B5002852
:102CBC002DD0C317C5185D40C40F280000F038F99B
:102CCC00154B1B1A5B055B0D0A2815DD0B3885406F
:102CDC0000222D032D0B002110002D030A0D2D0BAE
:102CEC0012052A430D4D1B052A4013435B00E407D4
:102CFC005B082343190070BD020029001532914076
:102D0C000A000B21081AC5402D032D0BE3E7002404
:102D1C00002300250022DEE71E040000FFFF0F80C9
:102D2C0010B5041E25D000F003F9144B1B1A5B05DB
:102D3C005B0D0A2812DD0B38844000222403240B7F
:102D4C000021100024030A0D240B120522430C4C05
:102D5C001B05224013435B00590810BD02002100E3
:102D6C00153291400A000B21081AC4402403240B8D
:102D7C00E6E7002300240022E2E7C0461E04000020
:102D8C00FFFF0F804100090E4B1C70B5DBB24602F1
:102D9C00750AC40F012B14DDE0239B006D07360B65
:102DAC00CB1800210A0D280012051C4D32435B057F
:102DBC002A405B0813435B00E4075B0823431900BC
:102DCC0070BD002914D1002D1ED0280000F0B0F8E1
:102DDC000A281CDC0B232A001B1ADA4003001533CB
:102DEC009D400F4B12031B1A5B05160B5B0DD8E7AE
:102DFC00002D06D0320B802636036D071643094B87
:102E0C00CFE7084B0026CCE700230026C9E70300D8
:102E1C002A000B3B9A400025E3E7C046FFFF0F80DA
:102E2C0089030000FF070000F0B54C00640D0B0394
:102E3C00621C5B0A460F5205C90F1E43C500520D9A
:102E4C00012A29DD374BE718FE2F1CDC002F3BDD58
:102E5C008001431E98410722F3006D0F03432B435F
:102E6C001A40002A04D00F221A40042A00D004333E
:102E7C008022D2041A4024D00137FAB2FF2F02D09C
:102E8C009B01580A01E0FF2200204002D205400AB3
:102E9C00C90710430843F0BD3543002C04D1002D65
:102EAC000AD100220020F0E7002DECD08020C003D6
:102EBC003043FF22E9E7002400235B02580AE2B208
:102ECC00E3E7DB083C00F8E73B001733F3DB802338
:102EDC001B0433431E26F61B1F2E14DD0222524206
:102EEC00D71B1A00FA401700202E04D00E4A944625
:102EFC006444A3401D432B005D1EAB4107223B43A2
:102F0C001A400027ADE7094A2800A21895409340C3
:102F1C006C1EA541F04007222B4303431A400027A7
:102F2C009FE7C04680FCFFFFA2FCFFFF82FCFFFF77
:102F3C001C2101231B04984201D3000C10391B0ADD
:102F4C00984201D3000A08391B09984201D30009A1
:102F5C00043902A2105C40187047C04604030202F8
:102F6C0001010101000000000000000010B5002963
:102F7C0003D1FFF7DDFF203002E0081CFFF7D8FF7C
:102F8C0010BDC046F0B583B0234B1B889BB2234ABF
:102F9C00934233D01A0A39D021490A70214A13704E
:102FAC001F4B1E78002E35D0012402226B46D91DF2
:102FBC0000239C461C4D63460B700B78DBB20A2B2E
:102FCC0015D8631E9800C0184000C018124BD718B3
:102FDC000B783F881B185B00EF52023292B20B78D1
:102FEC000133DBB20B700B78DBB20A2BEED9013458
:102FFC00E4B2B442DFD9002003B0F0BD084B01228B
:10300C001A70084B00221A70FA20F5E7044A0121C5
:10301C001170C3E70020EFE700D80108FFFF0000A4
:10302C0024000020521000208C0A0020F8B50F4B11
:10303C001B780025002B17D00D49022004F0F2FC60
:10304C0001240025094F0A4E0134E4B23B78A34217
:10305C000AD3611E49008919601C04F0E3FCA31C0F
:10306C001B2BF1DD0A25EFE72800F8BD240000201A
:10307C0068700020F0B5DE4657464E464546E0B532
:10308C0083B06B460022DA801C240027184B9A462A
:10309C009B460CE04B469B004B445B005B44002280
:1030AC005A720137FFB2134B1B78BB4217D3BD00CA
:1030BC00ED196D005544631D9BB298466B469E1DE1
:1030CC00B9463100200004F0ADFC33886B701B0A4C
:1030DC002B700134A4B20235A045F2D1DAE70020FE
:1030EC0003B03CBC90469946A246AB46F0BDC046E8
:1030FC00440F002024000020F0B5D6464F4646462B
:10310C00C0B582B06B460022DA80224B1B78002BB4
:10311C001DD00025204E1F4CE9B249007118280023
:10312C00CB3080B204F07EFC0135ADB22278EBB22C
:10313C009A42F1D8194B99462C009934A4B2CB354C
:10314C00ABB298466B469E1D00239A4609E00025BB
:10315C00F0E74B4652465A720A239C46E1444445DA
:10316C0010D0671DBFB24D463100200004F05AFC50
:10317C0033886B701B0A2B700134A4B20235BC422D
:10318C00F2D1E6E7002002B01CBC90469946A2465C
:10319C00F0BDC046240000209C0E0020380E0020FC
:1031AC0070B584B00E21694400230B8003AA1380F0
:1031BC00E42004F037FC0026002802D10E236B44D7
:1031CC001E780E216944E52004F02CFC040003A9B0
:1031DC00E62004F027FC0443A4B20025002C06D101
:1031EC000E236B441D882D0403AB1B88ED180E2198
:1031FC006944E72004F016FC040003A9E82004F05D
:10320C0011FC204380B20024002806D10E236B440D
:10321C001C88240403AB1B88E4180E216944E920A4
:10322C0004F000FC002807D10E236B441B88190AFC
:10323C00284A1170284A13700E216944EA2004F0C0
:10324C00F1FB002807D10E236B441B88190A234A73
:10325C001170234A13700E216944EB2004F0E2FB39
:10326C00002807D10E236B441B88190A1D4A1170C4
:10327C001D4A1370174B1B78002B03D0164A12787B
:10328C00002A12D1154B1B78002B03D0144A12784C
:10329C00002A11D1134B1B78002B03D0124A127841
:1032AC00002A10D1002004B070BD00922200290029
:1032BC00300005F0F7FFE5E700922200290030000E
:1032CC0005F0F0FFE6E7009222002900300005F03F
:1032DC00E9FFE7E722110020350E00202311002022
:1032EC00360E002024110020370E002010B582B0BD
:1032FC008A206B46991D400004F094FB002800D0F6
:10330C0075E06B4606331B88554A13701B0A5370C5
:10331C008E206B46991D400004F084FB002800D0E1
:10332C006CE06B4606331B884D4AD90B11715B0858
:10333C00D38016206B46991DFF3004F073FB0028D8
:10334C0063D16B46DA88474B1A808B206B46991DEC
:10335C00400004F067FB00285CD16B46DA88414BD7
:10336C005A8018206B46991DFF3004F05BFB002837
:10337C0055D16B4606331B883A4A13711B0A53719D
:10338C008C206B46991D400004F04CFB04001A2065
:10339C0001A9FF3004F046FB0443A4B2002C45D134
:1033AC0001AB1B881B046A460632128813432D4A54
:1033BC0093608D206B46991D400004F033FB002870
:1033CC0042D16B4606331B88264A13731B0A537370
:1033DC001C206B46991DFF3004F024FB002839D0CB
:1033EC00214B9A7E1F4B9A76002002B010BD1C4BCD
:1033FC001E4A1178197052785A7089E7184B1B4A7B
:10340C0011791971D288DA8093E7174B1A88154B0A
:10341C001A809AE7144B5A88124B5A80A1E7114B29
:10342C00114A1179197152795A71A9E7104B1B780D
:10343C00002B04D00B4BE12252029A60B9E70A4BE5
:10344C009A68084B9A60B4E7064B18225A7300220C
:10345C001A73BDE76B46DA88024B9A76C4E7C0460E
:10346C00746B0020F46B002008000020000000208A
:10347C00870A0020F0B5CE46474680B589B01E239A
:10348C006B4400221A800125EC241E000F23984661
:10349C0004E00434A4B20135072D58D031002000CB
:1034AC0004F0C0FA0028F4D131880B0A1A09AA4298
:1034BC00EFD140460340ECD0D0008218274881461B
:1034CC0091444A4653701172AF00BFB23800E930D4
:1034DC0080B2310004F0A6FA33881A0A49468A7081
:1034EC004B713800EA3080B2310004F09BFA33881B
:1034FC001A0A4946CA708B71EB37B8B2310004F026
:10350C0091FA33881A0A49460A71CB71EFB248789E
:10351C00390004F083FF4B46197A9B784A1001203E
:10352C0002400140002005904846C079049048466E
:10353C008079039048464079029048460079019082
:10354C004846C0780090380005F080F8A1E70020CC
:10355C0009B00CBC90469946F0BDC046241700201B
:10356C00F0B5DE4657464E46C0B582B0322011F05B
:10357C0053F8071E00D171E0394B1B78FF20FE2B4E
:10358C0066D1384E9A3B9B46B344354D7B1C019318
:10359C00354B994623E000243B19013B1B78002B4B
:1035AC0001D00134E4B2200011F036F85346D86053
:1035BC0000283FD02200390011F07BFA4B461B78D3
:1035CC0001334A46137022000021380011F07AFAB8
:1035DC00009B1B78FE2B37D114365E4534D0280067
:1035EC0014302B00791B1A78CA5401338342FAD158
:1035FC001435B24614220199300011F05AFA1422F3
:10360C000021380011F05EFA00952A78931CDBB289
:10361C00012BC0D9390000240A7001350134E4B201
:10362C0000952A78931CDBB2012BB5D90131322CD1
:10363C00F2D1B1E714220021504611F043FA3800C0
:10364C0010F0F4FF0E2003E0380010F0EFFF002024
:10365C0002B01CBC91469A46A346F0BDFB20F7E78E
:10366C0000DC0108106C0020F711002010B5FFF7EA
:10367C0089FCFFF7DBFCFFF7FDFCFFF73DFDFFF7D7
:10368C008FFDFFF733FEFFF7F5FEFFF769FF10BD67
:10369C00F0B583B0114B1B78002B1AD001240023FA
:1036AC0001930F4E0D4F08E0601C04F0EBF90AE09B
:1036BC000134E4B23B78A3420DD32500631E5B00BA
:1036CC00995B0029F0D102351B2DF1DD0A23019302
:1036DC00EEE700230193019803B0F0BD2400002015
:1036EC0068700020F0B5D6464F464646C0B5002659
:1036FC00002398461A4B9A461A4B994605E0013618
:10370C00F6B24B461B78B34224D3B3009B195B0033
:10371C0052469B5C002BF2D0B500AD196D00104BDE
:10372C009C46654444461C34A4B247462137BFB27C
:10373C002B781B026978C91889B2200004F0A2F911
:10374C0002350134A4B2BC42F2D1434605339BB2DC
:10375C009846D4E700201CBC90469946A246F0BD82
:10376C00440F002024000020F8B5DE4657464E4694
:10377C004546E0B50F00160099460AAB1B789B46F0
:10378C000BAB1D780CAB1B789A460DAB1C780EABB3
:10379C001B78984681B2E42004F074F9390A89B296
:1037AC00E52004F06FF9B9B2E62004F06BF9310AA8
:1037BC0089B2E72004F066F9B1B2E82004F062F9AE
:1037CC004B461902594489B2E92004F05BF92D02E9
:1037DC005544A9B2EA2004F055F924024444A1B29C
:1037EC00EB2004F04FF900203CBC90469946A246D1
:1037FC00AB46F8BD10B51F4C63785B0121781943BB
:10380C008A20400004F03EF92179C903E38819436A
:10381C0089B28E20400004F035F9174C218816200F
:10382C00FF3004F02FF961888B20400004F02AF956
:10383C0063791B02217B19431820FF3004F022F915
:10384C0021898C20400004F01DF961891A20FF3079
:10385C0004F018F9637B1B02217919438D20400079
:10386C0004F010F9A17E1C20FF3004F00BF90020AD
:10387C0010BDC046746B0020F46B0020F0B583B013
:10388C0034220021134811F01DF9134B1B78002B27
:10389C001AD00124002301930E4E0F4F08E0601C38
:1038AC0004F0F0F80AE00134E4B23B78A3420DD303
:1038BC002500631E5B00995B0029F0D102351B2D9E
:1038CC00F1DD0A230193EEE700230193019803B085
:1038DC00F0BDC046687000202400002010B5064BD7
:1038EC00064A12689A4206D004F074F9002802D1F4
:1038FC00024B014A1A6010BDADDEEFBEF07F002016
:10390C0070B58EB012256D4404AB009307AB2A0042
:10391C0008A901200AF0F6F903AC009405AB0E22BD
:10392C006A4406A902200AF0EDF901230A93002645
:10393C000B962B88099309A908980EF0F5FB0A96AB
:10394C0002230B932388099309A905980EF0ECFB2D
:10395C002988002208980EF05BFD05200AF064FD12
:10396C00218805980EF04EFD0023002802D0180087
:10397C000EB070BD12336B441988012208980EF0FA
:10398C0047FD05200AF050FD03AB198805980EF091
:10399C0039FD013843424341DBB2E8E710B50AF088
:1039AC00D9FE0400E1231B0243608023DB0003618A
:1039BC0080235B01836010F08DFC2268136820214A
:1039CC000B43136010BD000010B5044B9968FCF755
:1039DC0093FB43425841C0B210BDC046900000203A
:1039EC0070B504001B49FCF787FB06000625002E6A
:1039FC0023D019492000FCF77FFB00281FD0174962
:103A0C002000FCF779FB00281BD015492000FCF79F
:103A1C0073FB002817D013492000FCF76DFB00281E
:103A2C0013D011492000FCF767FB00280FD0013D93
:103A3C00EDB2002DDBD1002070BD0120FCE702208F
:103A4C00FAE70320F8E70420F6E70520F4E7062060
:103A5C00F2E7C046A0960108A4960108A8960108B2
:103A6C00AC960108B0960108B4960108F0B583B085
:103A7C00070001240D4D0326A7420FD00C4B1B88C9
:103A8C001A0A2A706B70AC7000960A23002200216F
:103A9C00200005F01FFD0A200AF0A7FF0134E4B254
:103AAC00062CE9D1002003B0F0BDC046140F002055
:103ABC0058000020F0B5DE4657464E464546E0B568
:103ACC0085B000AF474B1B789C460733DB08DB0007
:103ADC006A46D31A9D466C466346002B0DD02300D4
:103AEC00414A61464D1EEDB201352D190021197068
:103AFC00118001330232AB42F9D101380123235436
:103B0C00162242430232394BD2180021364D400066
:103B1C0001239846A34603E001310232062911D055
:103B2C001388002BF8D0465BB14646468E40B24611
:103B3C004E46544626434653DB085B44013B022465
:103B4C001C70E9E75C460226284B02337B6001239C
:103B5C009B46B046260043460133DBB2984663468B
:103B6C00002B35D000220023FB60013B43449946D7
:103B7C001EE001300231062815D00B88002BF8D03E
:103B8C00DB08013BF55C002DF3D1174AA55A5A46C8
:103B9C0082401543144AA5524246F254FB68013345
:103BAC00DBB2FB60E5E7BA680132D3B263450CD2F5
:103BBC00B35C4B45F8D1162151437B689A4651446E
:103BCC0053000020BA601C00D7E7FB68002BC2D161
:103BDC000020BD4605B03CBC90469946A246AB467B
:103BEC00F0BDC04624000020CC0C00208C0A002024
:103BFC00F0B50B78FF24002B00D104780A4B1D780C
:103C0C00002D0EDD0023002702E00133AB4209DA60
:103C1C00C25CA242F9D2CE5C002EF6D1DFB2140007
:103C2C00F3E700273800F0BD24000020074B19787B
:103C3C00002908D00300411801201A7810400133E4
:103C4C008B42FAD170470120FCE7C04624000020CB
:103C5C00F0B5DE4657464E464546E0B58FB00500FA
:103C6C008A463222002101A810F02CFF1A220021D2
:103C7C005A4810F027FF2900681E0023584A135495
:103C8C00584A1354162545430235574BED182A0054
:103C9C00012053469CB203E00130023207280FD0BA
:103CAC001388002BF8D0DB08A342F5D14C4B5344BE
:103CBC00013B01221A70494B52461A70C0B285E082
:103CCC004A4B1E78002E11DD0123FF24454F0020A6
:103CDC00AC4602E00133B34207DC9942FAD05A1EDB
:103CEC003F4DAC54BA181070F4E7654600243E4BB7
:103CFC0098460E23434456469B46A9461DE04D4626
:103D0C00B246340034E00231814215D00B88002BCE
:103D1C00F9D0DB08DBB2013BD75C002FF3D1304F7D
:103D2C007F5D0137FFB22E4EF65CBE42EBD92C4EB6
:103D3C00F7542C4EF454E6E7564601A8FFF776FFED
:103D4C00002813D101A92648FFF752FF0130C4B255
:103D5C00B442D4D0651E01AB01225A5516206843DB
:103D6C00811C414458441A00B246CFE74D46B24636
:103D7C001C4B1B19013B1A780023002A0ED0174943
:103D8C008C46184E00E00A00581C6146CC54B318FF
:103D9C00013B19781400C3B20029F4D101200F495A
:103DAC000F4B53441F00013F03E00130023507283D
:103DBC000BD02B88002BF8D03A788A18013A12785D
:103DCC00DB089A42F1D1C0B200E000200FB03CBC3D
:103DDC0090469946A246AB46F0BDC046F86C002012
:103DEC00EC100020081100208C0A00202400002078
:103DFC00F0B587B007000E0005921D00374B187800
:103E0C00FFF726FF0490002D20D0344B1C78B442D1
:103E1C005FD0BC4234D000240598FFF7BFFD049856
:103E2C00FFF7BCFD2D4B1B78A34246D02B4B1978CA
:103E3C0000230393013B02930193033300930B0084
:103E4C00049A059805F0F2FD07B0F0BD244B9B19C0
:103E5C00013B1A78012A10D0224B9B18013B1C788D
:103E6C001E4B1B78BB42D7D10AF0D4FE07001E4B69
:103E7C001968320011F020F80DE0184B1C78EFE7B0
:103E8C000AF0C8FE07000024184B19682B003200FA
:103E9C00380011F011F8164B1968380011F02CF895
:103EAC003800FCF733F982B23223390005980AF056
:103EBC0097FC64200CF0D0FDAEE704980AF04AFCA5
:103ECC0001210AF0DDFCB1E70AF0A4FE070004951D
:103EDC00DAE7BC42F8D004959EE7C04652100020A9
:103EEC00EC100020F86C00208000002084000020E2
:103EFC0088000020F0B5D6464F464646C0B584B083
:103F0C0005000390564C574B220043CB43C2196813
:103F1C0011609B8893802000FCF7F8F882B2012393
:103F2C005B4200933333210028000AF031FC01245A
:103F3C004D4F4B4D0126764222003900280010F0DF
:103F4C00BBFF2800FCF7E2F882B20096322329006E
:103F5C0003980AF01DFC0134062CEDD101235B42C1
:103F6C00009333330322414903980AF011FC404B70
:103F7C001B78002B65D0002601277F423D4B9946CC
:103F8C000C234B449A462AE007231340D2083A49A3
:103F9C00334810F091FF324D2800FCF7B7F882B28D
:103FAC0000973223290003980AF0F2FB0234B44242
:103FBC0007D02288002AE7D13049294810F07CFF2D
:103FCC00E9E746460097322302222D4903980AF06E
:103FDC00DFFB0136F6B2264B1B78B34231D9721C8B
:103FEC001F4C2849200010F067FF2000FCF78EF8CA
:103FFC0082B200973223210003980AF0C9FB1625E0
:10400C0075434B46EB5A5900C91849001E4BC91849
:10401C000522200010F0A5FF009732230522210075
:10402C00039C20000AF0B4FB0097322301221749AD
:10403C0020000AF0ADFBAC1C4C445544B0462E009D
:10404C00B7E701235B4200933333012210490398F5
:10405C000AF09EFB04B01CBC90469946A246F0BDEB
:10406C007C1000206496010878960108F8AA0108D3
:10407C00240000208C0A0020909601088C960108E0
:10408C000C95010880960108CC96010874960108DD
:10409C0000C60108F0B5C64600B584B00500039013
:1040AC00304C314B220043CB43C243CB43C21B6841
:1040BC0013602000FCF72AF882B201235B420093C4
:1040CC003333210028000AF063FB284B1B780122B4
:1040DC009046002B2CD0264E25E023000A2C1AD01B
:1040EC005C1CA95B802212021A410A42F5D01D4FBA
:1040FC00230042461F49380010F0DEFE3800FCF762
:10410C0005F882B201235B420093333339000398E4
:10411C000AF03EFBE1E743460133DBB29846134B12
:10412C001B78434504D300234246551E6D00D7E748
:10413C000C4C114B220023CB23C223CB23C203CB29
:10414C0003C22000FBF7E2FF82B201235B42009323
:10415C003333210003980AF01BFB04B004BC9046D7
:10416C00F0BDC0467C1000201496010824000020ED
:10417C00687000203096010844960108F0B5D646C8
:10418C0000B584B003900AF045FD040000230370D1
:10419C008D4B1A788D4D8E49280010F08DFE29001C
:1041AC00200010F0A9FE8B4B1A788B49280010F0D8
:1041BC0083FE2900200010F09FFE05230093033B93
:1041CC0000228649280010F077FE2900200010F00C
:1041DC0093FE834A8349280010F06EFE29002000CC
:1041EC0010F08AFE804A8149280010F065FE2900F3
:1041FC00200010F081FE7E4B2A0043CB43C219688D
:10420C001160998891809B7993712900200010F09E
:10421C0073FE01266D4D774B9A460EE06B4B764A3A
:10422C00116819609188998092799A716749200078
:10423C0010F062FE0136062E39D032006F4928008C
:10424C0010F03AFE2900200010F056FE5346F35CA5
:10425C00042BEBD85346F35C9B00694AD3589F461A
:10426C005A49684B0A0083CB83C203CB03C21B7829
:10427C001370DBE7554A644B83CB83C2D6E75349B3
:10428C00624B0A0083CB83C283CB83C21B8813800F
:10429C00CCE74E495E4B0A0083CB83C283CB83C2EF
:1042AC0019681160998891809B799371BEE7474991
:1042BC00584B0A0061CB61C261CB61C2200010F087
:1042CC001BFE554E01270DE0404D3A005349280086
:1042DC0010F0F2FD2900200010F00EFE01373836E8
:1042EC00072F18D03368002BEED0706A07F08EFDC4
:1042FC000500BB00043B4A4AD05807F087FD0090EC
:10430C002B003A004749314810F0D6FD2F492000C8
:10431C0010F0F2FDE2E72000FBF7F8FE2018032274
:10432C00414910F0C6FB2000FBF7F0FE20181D22BF
:10433C003E4910F0BEFB2000FBF7E8FE824600224F
:10434C003B4E214F02E02A00052D13D0551C3B7823
:10435C00013B5B00995B80231B0213410B42F2D0A3
:10436C002A003449194810F0A7FD1849200010F014
:10437C00C3FDE8E72000FBF7C9FE53461B041B0CEA
:10438C0098420ED02000FBF7C1FE201803222649CC
:10439C0010F08FFB039B002B09D104B004BC924698
:1043AC00F0BD20180522244910F083FBEAE7200019
:1043BC00FBF7ACFE82B201235B4200933333210046
:1043CC0003980AF0E5F9E8E7521000207C10002071
:1043DC0058940108880A00207494010890940108EC
:1043EC00B0940108BC940108D4940108E09401082D
:1043FC00FC940108CC1000201895010810950108B8
:10440C003494010820950108389501084495010859
:10441C006095010880950108BC1B00209895010847
:10442C00BC160020B49501080C950108E495010810
:10443C0068700020049601080C960108F0B5C64679
:10444C0000B505002949FBF757FE002810D0284974
:10445C002800FBF751FE002845D02B789846232BDB
:10446C000BD0244B1F78002F2AD0234E00241CE0A5
:10447C00224B187804BC9046F0BD681C10F08FF8E5
:10448C00C3B2002B03D01B4A12789A4206D21B4AA5
:10449C00127866209A42EDD110B2EBE718B2E9E738
:1044AC000134E4B20A36BC420AD031002800FBF7D2
:1044BC0023FE0028F4D14346002BF1D020B2D9E7DB
:1044CC000F4F002639002800FBF716FE002805D0F8
:1044DC0001360A370A2EF5D16420CBE73402FE20D0
:1044EC00204300B2C6E7FF20C4E7C04698960108F7
:1044FC009C96010824000020440F0020521000203C
:10450C00380E0020F0B583B001900D002A4C270026
:10451C00103721002800FBF7EFFD002843D00434AE
:10452C00BC42F6D1254B1B78012B0FD9244C9F0094
:10453C00FF187F0023000A3BFF1821002800FBF71F
:10454C00DBFD002831D00A34BC42F6D11D4C2700CB
:10455C00643721002800FBF7CFFD002828D00A344F
:10456C00BC42F6D1184C194B1C601E0023681F6806
:10457C003800FBF7CBFD02003900280010F0E0FCFE
:10458C00002817D064683460002CEFD1019B980090
:10459C009C46604440000E4E8019290010F0C8FC67
:1045AC00FFF7A0F802E0062000E0072003B0F0BD02
:1045BC000720FBE70820F9E74894010824000020B5
:1045CC004E0F0020380E0020A8000020D410002030
:1045DC00440F0020F0B5C64600B507000E003A4D5A
:1045EC00002429003000FBF787FD002850D001344F
:1045FC000A350A2CF5D1354C250010352100300038
:10460C00FBF77AFD002858D00434AC42F6D1304B7D
:10461C001B78012B0FD92F4C9D00ED186D0023003A
:10462C000A3BED1821003000FBF766FD002846D050
:10463C000A34AC42F6D1284C284B1C6098462368AF
:10464C001D682800FBF762FD02002900300010F005
:10465C0077FC002835D0646843461C60002CEED1F2
:10466C00194B1B78002B1ED0174B0A3301341A78C8
:10467C00002A19D001340A330A2CF8D1013F184909
:10468C007F000122A2407B5A13437B52002007E09B
:10469C00013F13497F000122A2407B5A13437B52F6
:1046AC0004BC9046F0BD0024A00000194000064B4D
:1046BC001818310010F03CFCE0E70620F0E707206A
:1046CC00EEE70820ECE7C046380E002048940108BD
:1046DC00240000204E0F0020A8000020D81000203D
:1046EC009C0E0020F0B5CE46474680B583B0244BD7
:1046FC001B78002B3CD0012500230193214B9946BC
:10470C00214B984621E00026012480273F0204E03B
:10471C000134E4B20136062C11D020000AF01AF84C
:10472C00436BBB42F4D1174B1B78013B5B004246F9
:10473C009A5A390031410A4341465A52E8E7013549
:10474C00EDB20F4B1B78AB4214D34B461B78AB42EC
:10475C00D9D000221321280005F042F9322009F0AB
:10476C0063FE0A4B1B78002BE9D002230193E6E78A
:10477C0000230193019803B00CBC90469946F0BD00
:10478C00240000205210002068700020E810002047
:10479C00F0B5C64600B500250124124B9846124FC1
:1047AC00802636020AE0200009F0D4FF01210AF02D
:1047BC0067F80134E4B20135062C0FD03B78013B8D
:1047CC005B0042469B5A32002A411A42EBD1200030
:1047DC0009F0C0FF00210AF053F8EAE7002004BCFE
:1047EC009046F0BD687000205210002070B509F0A2
:1047FC00D3FC09F071FD03F051FA09F03BFA08F013
:10480C00CDF909F09DFD09F0E1F909F0CBFD09F0B6
:10481C00D5FA00281AD1FFF773F8002821D0364BAF
:10482C0001221A70322009F0FFFD07F08DFA334B8C
:10483C00E12252029A6001241D00A96820000AF0AE
:10484C0015F80134E4B2062CF7D10FE0FFF746F867
:10485C00BFF34F8F2A4B2B4ADA60BFF34F8FC04602
:10486C00FDE7322009F0E0FD07F06EFAFEF7FEFEE0
:10487C00FFF78EFF08F0F4FD234B1B78002B27D09D
:10488C0080252D019024E4050122290020000DF043
:10489C00BFFDFA20400009F0C7FD002229002000CE
:1048AC000DF0B6FD642009F0BFFD012229002000A7
:1048BC000DF0AEFD642009F0B7FD002229002000A8
:1048CC000DF0A6FD03F026F8104B01221A7070BDF6
:1048DC0080252D019024E4050122290020000DF0F3
:1048EC0097FDFA20400009F09FFD002229002000CE
:1048FC000DF08EFDE6E7C046870A0020F46B002021
:10490C0000ED00E00400FA0552100020860A002099
:10491C0010B50CF083F807F0A1F8FFF767FF03F070
:10492C00E7FB0AF05DF810BD10B582B01E200FF049
:10493C0073FE04001E22002110F0C4F808498B7D80
:10494C000A7D013A920007481258088B0190497D64
:10495C0000910549200010F0AFFA200002B010BD04
:10496C00F46B0020AC990108B896010800B585B02D
:10497C000A00074B197801230393023B029301931E
:10498C00033300930B0005F051F805B000BDC04691
:10499C005210002030B587B004000D0000230493A2
:1049AC000393029301930093002200210020FEF751
:1049BC00DBFE621ED3009B1ADB00144A9B58002BB3
:1049CC0015D06A1ED3009B1ADB00104A9B58002B93
:1049DC0004D1200002F012FF002006E0200002F0BB
:1049EC000DFF280002F00AFF002007B030BD6A1E40
:1049FC00D3009B1ADB00054A9B58002B04D02800DF
:104A0C0002F0FCFE0020F0E76820EEE7BC1B002063
:104A1C0070B505000478002C10D0032604E02A7031
:104A2C0001352C78002C09D00FF0E8FD00194378E3
:104A3C0033402200012BF2D12032F0E770BD000090
:104A4C00F0B5C64600B588B00500DC4B1C78052CCB
:104A5C0000D110E2DA49A3001A1992000020505438
:104A6C001A1992008A1850701819800002304018D8
:104A7C000422002110F026F82B78622B02D1AB789F
:104A8C002E2B32D0CF4E2900300010F051FACE4CE4
:104A9C002100300011F0CCF805002100002011F0AD
:104AAC00C7F806002100002011F0C2F80400002D08
:104ABC0000D1E5E12800FEF787FF051E00D18FE14C
:104ACC00002E00D08EE16720002C00D0D4E1BB4C2E
:104ADC002378BB499A00D0188000023646540A1835
:104AEC00D570013323700020C6E16E78303EF6B2EB
:104AFC000020052E00D9BFE1B14AA3001919890085
:104B0C0001308854531800225A709E70EF1C0732E3
:104B1C00AE49380010F014FA002821D1A3001C195A
:104B2C00A400A74B1C190523E370F2009219A84BA3
:104B3C009B181B7ADB0704D5A04A1378013313703A
:104B4C009AE10123059300230493039302930193A9
:104B5C00009300220121300003F078FD0020EBE7E8
:104B6C000E229C49380010F0EBF900281CD1A30050
:104B7C001C19A400924B1C190623E370F200921925
:104B8C00934B9B181B7A9B07D6D4012305930023C8
:104B9C0004930393029301930093012200213000AC
:104BAC0003F054FD0020C7E70C228B49380010F0AD
:104BBC00C7F900287AD1F2009219854B9B189B7883
:104BCC00002B30D0F2009219814B9B18DB78002B14
:104BDC004AD0F20092197E4B9B181B790C20002BAB
:104BEC00AAD1774FA3001B199B00FB180B22DA707C
:104BFC0028000F300FF0CDFCC0B2704B1A78930028
:104C0C009B189B00FF183871012305930023049314
:104C1C00039302930190009300220021300003F0D3
:104C2C0015FD002088E7664FA3001B199B00FB189D
:104C3C000922DA7028000F300FF0ABFCC3B25F4AC8
:104C4C0011788A0052189200BF183B71012205920C
:104C5C0000220492039202920192009200213000F1
:104C6C0003F0F4FC002067E7554FA3001B199B00D1
:104C7C00FB180A22DA7028000F300FF08AFCC0B241
:104C8C004E4B1A7893009B189B00FF183871012328
:104C9C000593002304930393029301930090002245
:104CAC000021300003F0D2FC002045E70D224B49D7
:104CBC00380010F045F903000020002B00D03BE732
:104CCC00F2009219424B9B185B79002B31D0F20009
:104CDC0092193F4B9B189B79002B4CD0F2009219E8
:104CEC003B4B9B18DB790D20002B00D024E7344F75
:104CFC00143398465C433C19063BE3702800103093
:104D0C000FF047FCC0B22D4B1B7842465343FF18A3
:104D1C0038710123059304900024039402940194A8
:104D2C000094230022002100300003F08FFC2000AF
:104D3C0002E7234FA3001B199B00FB180C22DA700F
:104D4C00280010300FF025FCC0B21C4B1A789300D1
:104D5C009B189B00FF1838710123059300230493C3
:104D6C00039302900193009300220021300003F082
:104D7C006DFC0020E0E6124FA3001B199B00FB18F2
:104D8C000D22DA70280010300FF003FCC0B20B4B70
:104D9C001A7893009B189B00FF1838710123059318
:104DAC0000230493039002930193009300220021AB
:104DBC00300003F04BFC0020BEE6C046F71100208B
:104DCC00106C00205C110020149501082CAB01081C
:104DDC0024170020B09B0108C09B0108D09B010840
:104DEC00002E4FD0002C4FD02000FEF7EDFD0028F8
:104DFC0024D0274B1C78274AA300191989000427B3
:104E0C008F54191989005118CD70C871204D2C7808
:104E1C003000FEF7E5FD1F49A3001B199B00CB18C2
:104E2C0058702A7893009B189B00CB185B78002B4A
:104E3C002CD00132164B1A7000201DE0144B9846F2
:104E4C001A78144F9300991889000320C8557B18C1
:104E5C00DD7020000FF098FBFDF7E6FF079043464E
:104E6C001B789800C01880000630C019042207A9CE
:104E7C000FF01FFECAE70E2008B004BC9046F0BD30
:104E8C006720F9E76720F7E76720F5E76720F3E786
:104E9C00F7110020106C0020F8B50C00022817D078
:104EAC00032803D001280FD000200CE0354B1A78D2
:104EBC00013A93009B189B00334AD31801221A74B1
:104ECC0006F024FE0020F8BD0800FFF7B9FDFAE754
:104EDC002C4B1D78013DAB005B199B002A4AD31863
:104EEC00DE68002E3DD03000FBF710F907002000E3
:104EFC00FBF70CF93918023130000FF015FE224E79
:104F0C00AB005D19AD007519E8601E4D2A78013AA9
:104F1C0093009B189B00F3187A1CD868801821000A
:104F2C0010F006F82A78013A93009B189B00F618AB
:104F3C00F3681322DA55134B1A78013A93009B1835
:104F4C009B001149CB18DB680020002BBBD19000D3
:104F5C00801880004018142200210FF0B3FD0E20A1
:104F6C00B1E70800FBF7D2F801300FF055FBAB00AE
:104F7C005D19AD00044B5D19E86021000FF0D8FFFE
:104F8C00D9E7C046F7110020106C0020F0B5DE46C2
:104F9C0057464E464546E0B58BB004908846039282
:104FAC001C000922002107A80FF08CFDD54F2E0004
:104FBC0034E05222D44920000FF07BFDD14B00226B
:104FCC001A7044E00622D14903980FF0B9FF00286B
:104FDC0053D0022D5ED02E2103980FF09BFF051E9F
:104FEC0006D003380322CA490FF0AAFF002860D16B
:104FFC00992292002100039809F08EFD0600237877
:10500C00002B00D06FE12000FBF780F8020000219C
:10501C0020000FF057FD002E00D1ABE10398FFF7F5
:10502C00F7FC3D78002DCDD10322BA4903980FF03F
:10503C0087FF0028CFD1039BD91C0130FFF72CFF31
:10504C000028B6D1AF4B02221A700D23237023789F
:10505C00002B00D186E14346002B00D19DE10026B8
:10506C002000FBF753F882B201235B4200933333E9
:10507C002100049809F08CFBC5E7A24B00221A70A2
:10508C00A5490330FFF708FF4122A44920000FF087
:10509C0010FDDCE703990220FFF7FEFE002802D189
:1050AC000D232370D3E75222974920000FF001FD06
:1050BC00CDE70FF0A3FA6B78C01843785B0797D451
:1050CC0003996A1A07A80FF04CFF07A8FFF7B6F967
:1050DC000590934A1278934690423DD0642843D071
:1050EC00662847D0FF284BD06B461B7D9A46FE2B7B
:1050FC0078D0013506228B4928000FF021FF0028BB
:10510C0000D0B4E0884B00221A701921504604F0EC
:10511C0067FC642009F069FC844B1A78804B187882
:10512C0000235146FEF764FE7F4B1B78602B8ED11B
:10513C00FA21890001200BF02BF87D4B1B78002BFA
:10514C0085D07C4A138801331380059B22007A4951
:10515C0020000FF0B1FE7AE79922681C9200210022
:10516C0009F0DAFC06004AE72722744920000FF008
:10517C00A0FC6CE72522724920000FF09AFC66E730
:10518C001A2200216F480FF09DFC01350398FAF7A5
:10519C00BDFF060007AB1800FAF7B8FF721E121A13
:1051AC00290069480FF0DDFE0398FAF7AFFF0600FF
:1051BC0007A8FAF7ABFF331A9BB21722FF21584608
:1051CC0004F0E6FB992292002100280009F0A4FCCF
:1051DC0006002000FAF79AFF20181D225B490FF0F9
:1051EC0068FC0CE7059B1B12DBB29A46584B9946A0
:1051FC0052461A701A22002152480FF063FC6B1CA5
:10520C0005930398FAF782FF050007AA1000FAF736
:10521C007DFF013D2A1A05994B480FF0A2FE039819
:10522C00FAF774FF050007A8FAF770FF2B1A9BB268
:10523C0017225146584604F0ABFB394B1B78013B07
:10524C005B00444A9B5A4A4612781341DB0706D44A
:10525C0007AB2200404920000FF02EFECFE699222A
:10526C0092002100059809F057FC0600F0E703981E
:10527C00FAF74CFF060007AB1800FAF747FF721E4F
:10528C00121A290030480FF06CFE0398FAF73EFF13
:10529C00050007A8FAF73AFF013D2A1A92B2172126
:1052AC00504604F09DFB059A2C4920000FF004FE9B
:1052BC002378002B02D04346002B08D12000FAF7AC
:1052CC0025FF0200002120000FF0FCFB2CE7200042
:1052DC00FAF71CFF82B201230093313321000498AA
:1052EC0009F056FAEAE74346002B00D18BE6B7E605
:1052FC0001235B420093333338221949049809F097
:10530C0047FA43E024120020E89901083C9A01086E
:10531C00889A0108E49901087C960108449A0108CE
:10532C0052100020289B0108746B0020880A002072
:10533C00E81000209E190020549B01088C9A01084B
:10534C00B49A0108000D0020140F0020DC9A01080B
:10535C00F61100209C0E0020FC9A0108309B0108DD
:10536C00749B01082000FAF7D1FE020000212000F6
:10537C000FF0A8FB0922002107A80FF0A3FB0B4B91
:10538C001B78002B02D14346002BB1D10BB03CBC97
:10539C0090469946A246AB46F0BD2000FAF7B6FE01
:1053AC000200002120000FF08DFBE3E72412002007
:1053BC00F0B5CE46474680B589B00F2304AA944673
:1053CC00634400221A700121494201200AF0E0FED8
:1053DC0009F020FC0590E1231B035C4A92689A4279
:1053EC000FD001245A4E1D0003E00134E4B2062C08
:1053FC0007D03378A342F8D02900200009F036FA00
:10540C00F3E7544B1A8853009B185B00524A9B18C5
:10541C00524A1278524C4E4D297800915149200035
:10542C000FF04AFDA42228780A2392004E4909F075
:10543C00D7F92000FAF76AFE82B228780A232100F5
:10544C0009F0CEF90027424B9946484B98461E006E
:10545C000123049355E00F2404A98C466444227064
:10546C006A0052199201424CA21800240399545418
:10547C003E4A53550F2504AB9C4665440A23012232
:10548C00290009F0ADF92B780D2B1DD00A2B36D045
:10549C00082B52D07F2B50D01A00203A5E2A2ED8DF
:1054AC00312F2CDC334AD35501377FB227E07155AD
:1054BC00049B0393E25C002ACDD1BF2BF7D00133C0
:1054CC009BB2BF2BF5D9D5E7214B18780A230222C2
:1054DC00294909F085F9002F2AD0264F1C4B187842
:1054EC00059B3A000121FFF751FD390023480FF0CD
:1054FC001FFD3222002138000FF0E4FA00270BF0D8
:10550C002DF94B461878451E4346595D8BB2BF2B7F
:10551C00B0D803916A0052199201154CA218525C32
:10552C00002A98D100216A0052199201A418C4E7EC
:10553C00124910480FF0FCFCCFE7002FDFDD013FD4
:10554C007FB20C4B0022DA55D9E7C046F46B002031
:10555C00880A002058000020CC9601085210002028
:10556C00F8110020E09B01080C9C01086816002033
:10557C00A812002028110020C8B40108C411002072
:10558C0070B50C001C4B1A78013A93009B189B00C9
:10559C001A4AD318DB68002B2CD0194B1B68002B34
:1055AC0014D0174B1D682B78002B12D01321280018
:1055BC000FF0B0FC061E11D0421B290020000FF08A
:1055CC00D0FC01360E4B1E60012006E00C4B18601F
:1055DC00E7E70B4B00221A60002070BD2900200069
:1055EC000FF0A6FC2000FAF791FD2D18044B1D605E
:1055FC000120F2E70020F0E7F7110020106C0020EA
:10560C0020120020F0B583B0040083001B189B000F
:10561C003F4A9B5C012B03D0032B15D0002011E0DB
:10562C003B4983001A1892008A189078C20012180D
:10563C001B199B00CB183749505CDB78C01A4342CE
:10564C005841C0B203B0F0BD314E85002B189B0001
:10565C00F318DA78013A53009B189B002E4A9B589A
:10566C001F682918890006318919042201A80FF036
:10567C0020FA2D19AD0075196B78062B3FD89B00BD
:10568C00264AD3589F46391C0198FAF71BFF431E34
:10569C009841D7E7391C0198FAF71AFF431E984135
:1056AC00D0E7391C0198FAF727FF002829D00021F0
:1056BC00381CFAF707FF43425841C3E7391C0198DD
:1056CC00FAF710FF431E9841BCE7391C0198FAF712
:1056DC001DFF002817D00021381CFAF7F3FE4342B7
:1056EC005841AFE7391C0198FAF7ECFE00280CD1B1
:1056FC000021381CFAF7E6FE43425841A2E700208D
:10570C00A0E700209EE700209CE700209AE7C04617
:10571C00106C00202417002090000020C89901086C
:10572C00F8B509F077FA05001C4B1B78002B32D02A
:10573C0000241B4F1AE01B4B18782B001A4A00212F
:10574C00FFF724FC2800FAF7E1FC020000212800F6
:10575C000FF0B8F91449F068FFF712FF0028EAD1EE
:10576C000134A4B20D4B1B78A34214D9A3001B190E
:10577C009B00FB181B7C002BF2D0E0B2FFF742FF22
:10578C000028EDD0094B20221A70A3001E19B60078
:10579C00034B9E19DEE70020F8BDC046F711002030
:1057AC00106C0020880A002090110020746B0020DF
:1057BC000020704770B582B00400150000230193DF
:1057CC000093002801D172B6FEE701AA012128003E
:1057DC0009F024FA0023C356702B0CD06A46022120
:1057EC00280009F01BFA0EF0DAFE13220F492000F4
:1057FC000FF05FF916E001300EF0D1FE06006A469C
:10580C000221280009F00AFA0EF0C9FE0500F0B2D8
:10581C00290009F02BF8FF2333402A00044920000B
:10582C000FF04AFB002002B070BDC04698A80108DA
:10583C0070A8010810B5002801D172B6FEE7034B21
:10584C001A8803490FF038FB002010BDCCF7FF1F5E
:10585C0064A2010810B582B004001000002301936B
:10586C0000230093002C01D172B6FEE701AA01219E
:10587C0009F0D4F90378323B012B07D915220B49D7
:10588C0020000FF016F9002002B010BD0EF087FEBC
:10589C00C0B2694603F076F90098FDF773FA02007E
:1058AC000B00034920000FF007FBECE7609F010899
:1058BC003C9F010810B582B00400002301930093B3
:1058CC00002801D172B6FEE7694601A803F09CF8E6
:1058DC0001A920000FF02CFB0098FDF753FA0200F1
:1058EC000B00034920000FF0E7FA002002B010BDB6
:1058FC00AC9F010810B582B0040000230193009303
:10590C00002801D172B6FEE7694601A803F07CF8C5
:10591C0001A920000FF00CFB0198FDF733FA0200EF
:10592C000B00034920000FF0C7FA002002B010BD95
:10593C00789F010870B584B004001600002303930F
:10594C00029300230193002801D172B6FEE703AA4B
:10595C000121300009F062F9050002AA0221300091
:10596C0009F05CF906002B78323B012B07D9152284
:10597C00194920000FF09DF8002004B070BD2800DC
:10598C000EF00DFEC5B215493000FAF7B5FB002834
:10599C0005D013493000FAF7AFFB002816D10F4E93
:1059AC003100280003F0B8F901AA3100280003F0F7
:1059BC00E5F901A920000FF0BBFA0198FAF7FAFDFE
:1059CC0082B2084920000FF077FAD5E71222064977
:1059DC0020000FF06EF8CFE7609F0108EC9E0108E5
:1059EC00F09E0108F89E0108089F0108F0B5D64604
:1059FC00474680B585B00400100000230393644B28
:105A0C001A7802AB1A70002C01D172B6FEE703AA09
:105A1C00012109F003F905005E49FAF76DFB002836
:105A2C0000D07BE05C4B1A785C4B9B18013B1E78DA
:105A3C000125594B9846EBB29A4643461B78534581
:105A4C0008D10135062DF6D1002005B00CBC9046CE
:105A5C009A46F0BD0FF04EF802AF387064230093F5
:105A6C005A3B01223900504608F092FE504608F08D
:105A7C0071FE03689B8C3A78DBB29A423CD02A00C8
:105A8C00474920000FF018FA2000FAF73FFB82B2CA
:105A9C00414B1878642300935A3B210008F078FEA0
:105AAC005422404920000FF004F82000FAF72EFB96
:105ABC0082B2394B1878642300935A3B210008F0CA
:105ACC0067FE0136344B1A78013A53009B189B0140
